:020000040800F2
:1000000000000220091200083D1200083D120008FD
:100010003D1200083D1200083D12000800000000DB
:10002000000000000000000000000000C92D0008D2
:100030003D120008000000003D1200085D2C000881
:100040003D1200083D1200083D1200083D12000854
:100050003D1200083D1200083D1200083D12000844
:100060003D1200083D1200083D1200083D12000834
:100070003D1200083D1200083D1200083D12000824
:100080003D1200083D1200083D120008000000006B
:100090000000000000000000000000003D12000809
:1000A0003D1200083D1200083D1200083D120008F4
:1000B0003D1200083D1200083D1200083D120008E4
:1000C0003D1200083D1200083D1200083D120008D4
:1000D0003D1200083D1200083D120008000000001B
:1000E0003D1200083D1200083D120008000000000B
:1000F0000000000000000000000000003D120008A9
:10010000000000003D1200083D1200083D120008EA
:1001100000000000000000000000000000000000DF
:100120003D1200083D1200083D1200083D12000873
:100130003D12000800000000000000000000000068
:100140000000000000000000000000003D12000858
:100150003D1200083D1200083D1200083D12000843
:100160003D1200083D1200080000000000000000E1
:10017000000000000000000000000000000000007F
:10018000000000003D120008000000000000000018
:100190003D1200083D12000810B5054C237833B914
:1001A000044B13B10448AFF300800123237010BD4A
:1001B000980400200000000020A4040808B5034BA8
:1001C0001BB103490348AFF3008008BD00000000E5
:1001D0009C04002020A40408154B002B08BF134BDF
:1001E0009D46A3F5803A00218B460F461348144ADA
:1001F000121A15F030FD0F4B002B00D098470E4B14
:10020000002B00D098470020002104000D000D486D
:10021000002802D00C48AFF3008015F089FC2000C4
:10022000290002F087FD15F0E3FA00BF0000080086
:1002300000000220000000002F09000898040020A0
:10024000E427002000000000000000001FB5044665
:1002500010220021684615F0FEFC284B22681A6027
:10026000A279012301930293122A44D8DFE802F015
:100270000C0B0A232527292B2D2F31333537393BFA
:100280003D3F4100022300931D4A1C48536823F45C
:1002900040036946536001F059F9184801F0A2F88B
:1002A0000A21164801F0FEF828BB144801F04AF96B
:1002B00080B204B010BD0323E5E70423E3E7052380
:1002C000E1E70623DFE70723DDE70823DBE7092370
:1002D000D9E70A23D7E70B23D5E70C23D3E70D2370
:1002E000D1E70E23CFE70F23CDE7064BCBE7112352
:1002F000C9E71223C7E70020DBE700BF5008002052
:1003000000230140120000104FF0FF33EF2973B5B6
:1003100004460D4603604CDC2B49284612F046FE8D
:1003200029492060284612F05DFE274906462846E6
:1003300012F000FE2368013304D1482223492448E7
:1003400012F0E6FD731C04D149222049214812F025
:10035000DFFD2168204BA580C6F304369942A671C3
:100360000FD11E48036813BB01931D4B5A6C42F416
:1003700080725A645B6C03F480730193019B0123C8
:100380000360184800230122016043608360036119
:10039000836103624362C3628362C360C2610363B9
:1003A000436100F075FF10B10F4812F04EFE02B02D
:1003B00070BD0E49284612F0F9FD0C492060284610
:1003C00012F010FE0646B5E784670108B86501081B
:1003D000226601083A66010800200140B4040020AA
:1003E00000380240500800205366010838680108B0
:1003F00008B5FFF72BFF07EE900AB8EE677ADFED3E
:10040000037A67EE277A17EE900A08BD0108803953
:1004100030B50C4CA268A468B4F1006F13460CD13F
:10042000131F094C094A53F8045F42F8045FA242C3
:10043000F9D1044A4FF000539360103043F8201074
:1004400030BD00BF00ED00E094010020FCFFFF1F65
:100450007FB50023072855D8DFE800F00413202DCE
:100460003A54544700932A4B2A481A6B42F001022F
:100470001A631B6B03F001030093009B07B05DF848
:1004800004FB0193224B24481A6B42F002021A63C8
:100490001B6B03F002030193019BEFE702931C4BDC
:1004A0001E481A6B42F004021A631B6B03F004032C
:1004B0000293029BE2E70393154B19481A6B42F033
:1004C00008021A631B6B03F008030393039BD5E731
:1004D00004930F4B13481A6B42F010021A631B6B04
:1004E00003F010030493049BC8E70593084B0E48E0
:1004F0001A6B42F080021A631B6B03F080030593B2
:10050000059BBBE7094812F0A0FD0020B6E700BF3D
:10051000003802400000024000040240000802408F
:10052000000C024000100240001C02406A660108F4
:10053000431C10B5044604D174220649064812F043
:10054000E7FC2046002100F07DFA04F00F040120B2
:10055000A04010BD8B660108E266010870B5044634
:100560004B1C0E46218216D0C1F30310FFF770FF1B
:1005700005463046FFF7DCFF238A074A656103F032
:100580000F03206052F82330A36105F110031835E2
:100590006360A560E56070BD606A0108B0F9100095
:1005A00000F0E8BA10B58369446971B9216893FA1B
:1005B000A3F2B2FA82F20320520000FA02F221EA18
:1005C000020293FAA3F3226010BD226893FAA3F10A
:1005D000B1FA81F193FAA3F30320490000FA01F183
:1005E000B3FA83F322EA01025B00012101FA03F36B
:1005F0001343236010BD000070B5134C23681A69C3
:10060000950707D5DA68900704D56FF002021A61E2
:1006100012F078FC23681A69510713D5DA6852077B
:1006200010D56FF00402094E1A615D6A3368EB1A47
:10063000B3F57A7F06D300F01BFE236805F57A72C6
:100640009A63356070BD00BFE8080020B804002040
:1006500030B589B001A903A801F0A2FA01F070FA3F
:1006600000230293244B01901A6C244C42F00802A0
:100670001A641A6C02F008020292029A1A6A42F094
:1006800008021A621A6A22F008021A62069AA3F590
:100690000B3323604FF0FF33E360194B4ABBB0FBD1
:1006A000F3F001380025606014482561A56065619C
:1006B00001F056FB13493220FFF7AAFE124B0F48F8
:1006C0004FF480225A60294601F02EFC04210B4889
:1006D00001F02AFC23680D4A596A1160126802F57C
:1006E0007A729A63DA68284642F00402DA6009B046
:1006F00030BD4000D3E700BF00380240E8080020CA
:1007000040420F00F905000800E100E0B8040020B5
:1007100000B589B012F0AAFC052101A812F0EEFB89
:10072000039B019A1A60962012F0F5FC019B049A33
:100730001B041360962012F0EEFCF1E770B50D4635
:10074000A0B0044612F092FC2B4622468021684657
:1007500015F03AFD051E03DC12F0B4FC20B070BDAC
:10076000094B1B6823B903220221084800F066FCEC
:10077000064E00241DF804103046013400F032FD0E
:10078000A542F7D1E8E700BF000600209808002046
:100790000FB407B504A951F8040B0191FFF7CEFF80
:1007A00003B05DF804EB04B0704708B501F03AFD02
:1007B000BDE8084000F044BD08B5084B1B685BB9B4
:1007C00002210748032200F039FC4FF41651044877
:1007D000BDE8084000F0DCBC08BD00BF00060020FA
:1007E00098080020022810B5044601DC002010BD46
:1007F00014F0F8FF09230360033C094B53F824006D
:10080000002243F8242040B103681B699847041E66
:10081000ECDA14F0E7FF644204604FF0FF3010BDE3
:10082000BC040020F8B505460E46144614F0DAFF65
:100830000923022D03600FDC124B1B680BB9FFF775
:10084000BBFF35463719104EBD4215D015F8011BB8
:10085000304600F0C7FCF7E7033D0C4B53F825008A
:1008600060B103682246DB6831469847041E03DA0C
:1008700014F0B8FF634203602046F8BD4FF0FF3428
:10088000FAE700BF0006002098080020BC04002002
:1008900070B504460D46164614F0A4FF0923022C39
:1008A00003600BDC0F4B1B680BB9FFF785FF0E488D
:1008B00000F07CFC01242870204670BD033C0B4BEB
:1008C00053F8240058B1036832469B68294698477C
:1008D000041EF1DA14F086FF63420360ECE74FF088
:1008E000FF34E9E70006002098080020BC0400203F
:1008F00070B504460D46164614F074FF0923022C09
:1009000003600BDD033C084B53F8240040B103683F
:1009100032462946DB69BDE870401847002070BDAB
:100920004FF0FF3070BD00BFBC040020704708B519
:10093000FFF73BFFFFF7FAFF08BD00000C4A136802
:1009400010B51844EFF30881884205D3094B0C22F7
:100950001A604FF0FF3010BD07490C6824B10749F9
:10096000096821448842F1D21060184610BD00BFCA
:1009700098010020E0270020BC050020C0050020D1
:10098000074C08B523680546986814F0F5FF2368FE
:10099000D86814F0F1FF0DB1FFF7BAFEFEE700BF13
:1009A0002C0400207047704708B5FFF7FBFF08BD17
:1009B00008B5FFF7F8FF08BD10B515F0DDF80446DF
:1009C00010B9024812F041FB204610BD65670108CE
:1009D00008B115F0D9B87047FFF7FABF034610B554
:1009E00053F8042B044602B9036022689A4204D0EB
:1009F00059220349034812F08BFA206810BD00BF4A
:100A0000F56601085167010830B5C36891FAA1F491
:100A1000B4FA84F491FAA1F10325B1FA81F16400EA
:100A200005FA04F4490023EA040302FA01F1194328
:100A3000C16030BD012A02D0022A18BF0022FFF790
:100A4000E3BF00002DE9F0410E46411C044604D1ED
:100A50003E224449444812F05BFA04F00F08434B2D
:100A6000C4F3031053F82850FFF7F2FC06F0070711
:100A70000446836895FAA5F1B1FA81F195FAA5F2D9
:100A80000320490000FA01F1B2FA82F223EA0103DD
:100A90005200022101FA02F21343A36087425AD89E
:100AA000DFE807F05E1D021DB8F1070FC6F3032053
:100AB0003BD9626A2B0A93FAA3F1B1FA81F193FA56
:100AC000A3F34FF00F0EB3FA83F389000EFA01F18E
:100AD0009B0022EA010200FA03F3134363623B46E0
:100AE000226895FAA5F0B0FA80F095FAA5F14FF0DA
:100AF000030EB1FA81F140000EFA00F0490022EA3B
:100B000000028B40013F1343012F236005D8636827
:100B100032074CBF2B43AB436360C6F30112294637
:100B20002046BDE8F041FFF785BF226A95FAA5F39C
:100B3000B3FA83F395FAA5F14FF00F0EB1FA81F1F4
:100B40009B000EFA03F3890022EA030200FA01F384
:100B500013432362C3E764220249054812F0D8F91F
:100B60000023BDE7A06A0108E2660108606A010887
:100B7000F56A0108431C70B506460D4604D185226E
:100B80001B491C4812F0C4F906F00F021A4BC6F3B9
:100B9000031053F82240FFF75BFC04FB04F20168EA
:100BA00002EB42030B40B3FBF2F3013B012B05D8F0
:100BB000EB1E022B436809D823434360032D08D161
:100BC00001222146BDE87040FFF734BF23EA040349
:100BD0004360012DF4D0052D01D0022D01D1022258
:100BE000EFE721460022BDE87040FFF70DBF00BFD0
:100BF000A06A0108E2660108606A010830B507EEE4
:100C0000101A284B02681A60B5EEC07AF1EE10FA9D
:100C100089B0054628D4F7EE007AB4EE677AF1EE93
:100C200010FAC8BFB0EE677AD5ED037AF8EE677AAE
:100C3000602267EE877A0192FCEEE77AAA68C5ED3A
:100C4000047A17EE903AB3FBF2F302930023039376
:100C500005930693049307932B7D013B032B16D832
:100C6000DFE803F01B0517199FED0F7ADCE704247A
:100C7000224601A90B4801F0D3F810B10B4812F03D
:100C8000E4F96B7D074821464BB101F05BF909B0EF
:100C900030BD0824ECE70C24EAE70024E8E701F083
:100CA0002DF9F4E7C4050020000000007D6B010869
:100CB000C368ABB107EE903AD0ED046AB8EE677A3C
:100CC000F8EE666AC6EE877AB7EE007AF4EE477AF7
:100CD000F1EE10FAC8BFF0EE477A17EE900A7047AF
:100CE000DFED017AF9E700BF000000002DE9F047D1
:100CF0004A4C0268226086B000230E4600930546E7
:100D0000FFF7D6FF116A41F211131942074608D1C5
:100D1000116A40F24443194202BF136823F00103F1
:100D20001360694601A800F03BFF3D482968002395
:100D300080465FFA83F9013350F839208A42F8D1AE
:100D400011B9384812F081F908EBC90898F8043055
:100D500053BB00F0F5FE0090049800990123AB60AE
:100D6000314B30BBB1FBF3F3013B636006F1FF3C59
:100D70002D4B6268B1FBF3FE4FEA41080021B8FB3E
:100D8000F3F8C4F80CC063468A464FF6FE79B3F513
:100D9000803F12D2B2F5803F0FD2BAF1000F00D0DF
:100DA0006260F1B1E3601CE000F0E2FE00900598A3
:100DB000D3E74A00B2FBF3F3D6E7AB685B00AB6066
:100DC00030BB0EFB03F2BCFBF3F34B4502F1FF32E9
:100DD00021D8B2F5803F1ED314486260E36012F060
:100DE00034F900230D482361A36000F0D3FF10B154
:100DF0000E4812F02AF9EE6039462846FFF7FEFE4B
:100E00002268136843F00103136006B0BDE8F08761
:100E100008FB03F2D7E701218A46B8E7C4050020A2
:100E2000946B0108686B010840420F007D6B01085C
:100E300070B50E46044688B05449304612F0B6F8F4
:100E40002060013004D12E225149524812F060F83E
:100E50004E49304612F0C6F8431C054604D13222F2
:100E60004B494D4812F054F8C5F304334B4A2375EF
:100E70002368C5F34045934265754FF000021AD1CF
:100E80000092474A516C41F001015164526C02F0EA
:100E900001020092009A434A934229D1002305930C
:100EA0003F4B5A6C42F480325A645B6C03F48033DB
:100EB0000593059B58E0B3F1804F0BD10192384A5E
:100EC000116C41F001011164126C02F001020192F7
:100ED000019AE0E734498B421AD10292304A116CF0
:100EE00041F002011164126C02F002020292029AB5
:100EF0002E4A93421AD100230693294B5A6C42F48E
:100F000000325A645B6C03F400330693069B2BE0BB
:100F100027498B421AD10392214A116C41F00401F6
:100F20001164126C02F004020392039A214A934264
:100F30001AD1002307931A4B5A6C42F480225A6448
:100F40005B6C03F480230793079B0DE01A498B42E7
:100F5000A1D1134B04921A6C42F008021A641B6C64
:100F600003F008030493049B0849304611F0E2FFA4
:100F70000023E36023610123A680A36044F620617F
:100F80002046FFF7B3FE08B070BD00BF68680108D7
:100F9000F76A0108506B01083A6601080000014039
:100FA000003802400040014000040040004401407D
:100FB0000008004000480140000C004007EE101AF5
:100FC000DFED047A67EE277AFDEEE77A17EE901AE6
:100FD000FFF78CBE0024744942681649920110B58F
:100FE0008B1804688C5082685A60C2689A600269E3
:100FF000DA6042691A61026A9A610022DA61DA846F
:101000009A84DA859A85B0F91A2001320AD1082229
:101010005A61184601F0C3F858B10748BDE81040BE
:1010200012F013B8B0F9182001320CBF04220C22C0
:10103000EEE710BD04060020DC6B0108F0B50E469B
:1010400085B0044649493046154611F0AFFF48497E
:101050000746284611F0AAFF0146384611F088FFDE
:101060002060013004D166224249434811F050FF0C
:101070002368424A93421ED002F5806293425ED0BA
:10108000A2F5504293422BD13D4B1A6A42F40032F2
:101090001A621A6A22F400321A62002202921A6C50
:1010A00042F400321A641B6C03F400330293029B77
:1010B0000123636014E0324B5A6A42F010025A6214
:1010C0005A6A002122F010025A6201915A6C42F0D1
:1010D00010025A645B6C616003F010030193019B82
:1010E0002249304611F026FF2149284611F022FFFF
:1010F000721C03D001213046FFF73CFD6B1C03D06E
:1011000001212846FFF736FD4FF41653A360002354
:10111000E360236163612362268365832046FFF7D2
:101120005BFF2268174B9A4207D1174B17480122E1
:101130001A6021464C2214F083FD05B0F0BD104B1F
:101140005A6A42F020025A625A6A22F020025A6217
:10115000002203925A6C42F020025A645B6C03F046
:1011600020030393039B0523A3E700BF0C6A010838
:10117000B8690108F46B01085C6C010800100140BB
:10118000003802400044004000060020980800207B
:101190008160FFF721BF00004368034A9B01D358D9
:1011A0001868C0F34010704704060020416810B56D
:1011B00004462046FFF7F0FF0028FAD08901034BD0
:1011C0005B585868C0F3080010BD00BF040600203B
:1011D0004368034A9B01D3581868C0F3C010704796
:1011E0000406002038B5446805462846FFF7F0FF9E
:1011F0000028FAD0A401034B1B59C1F30801596020
:1012000038BD00BF04060020DFF820D0002103E035
:10121000074B5B58435004310648074B42189A422B
:10122000F6D301F0C1F8FEF7D7FF704700000220A7
:101230002CA404089801002098040020FEE7000078
:1012400008B50A4B1A6842F400721A601A6842F430
:1012500080621A601A6842F480721A600F20FFF7E9
:10126000F7F900F00BFA002008BD00BF003C024077
:10127000024A136801331360704700BFE40800207E
:10128000014B1868704700BFE40800207047000059
:1012900010B50446002800F09F80036C23B9436416
:1012A00080F83C30FFF7F2FF236CDB0600F1928000
:1012B000236C23F4885323F0020343F002032364D6
:1012C000464B5A6822F440325A605A6861680A43B1
:1012D0005A60236821695A6822F480725A605A68F9
:1012E00042EA01225A605A68A16822F040725A60AC
:1012F0005A680A435A609A68E16822F400629A6068
:101300009A680A439A603649A26A8A4256D0996816
:1013100021F07061996099680A439A609A68E16A5D
:1013200022F040529A609A680A439A609A68A169CA
:1013300022F002029A609A6842EA41029A60226AA6
:10134000002A43D05A6842F400625A605A6822F474
:1013500060425A604FF4604292FAA2F2B2FA82F10D
:10136000626A5868013A8A4002435A60DA6AE1695F
:1013700022F47002DA62DA6A013942EA0152DA6270
:101380009A68216B22F400729A609A6842EA4122BC
:101390009A609A68616922F480629A609A68002073
:1013A00042EA81229A606064236C23F0030343F0D5
:1013B00001032364002384F83C3010BD9A6822F0B6
:1013C00070629A609A6822F04052AEE75A6822F43E
:1013D0000062CAE70120EDE7012010BD00230140B3
:1013E0000100000F82B00023019390F83C30012BE4
:1013F0004ED0012380F83C3003689A68D10705D5A8
:101400009A68D20714D4002002B070479A68214924
:1014100042F001029A60204A1268B2FBF1F202EB3C
:1014200042020192019A002AEAD0019A013AF8E7B1
:10143000026C22F4E06222F0010242F48072026443
:101440005A68510541BF026C22F4405242F4805266
:101450000264026C12F480521CBF426C22F006023D
:101460004264002280F83C206FF022021A600B4A8E
:101470005268D20608D1986810F04050C3D19A68DB
:1014800042F080429A60BFE7054A9342BBD1F2E73F
:101490000220B9E740420F009C01002000230140D8
:1014A0000020014003689A6870B5560504460D4651
:1014B0000BD59B68D80508D5236C43F02003236423
:1014C000002384F83C30012070BDFFF7D9FE0646AA
:1014D00023681A6892070CD56FF012021A60226C0A
:1014E00042F4007222649A6812F0405F13D0002028
:1014F00070BD691CEDD045B9236C43F0040323642F
:10150000002384F83C30032070BDFFF7B9FE801B38
:101510008542DDD2F0E7A269002AE8D1DA6A12F446
:10152000700F02D09B685B05E1D4236C23F48073B9
:101530002364206C10F48050D9D1236C43F0010354
:10154000236470BD0368D86C70470000F7B50023B2
:10155000019390F83C30012B6AD00D6804688A68CA
:101560000123092D80F83C30AEB22AD906EB4603A0
:10157000E7681E3B4FF0070E0EFA03FE27EA0E0740
:10158000E760E76802FA03F33B43E3604A68062A30
:101590004FEA820325D81344676B591F1F238B40E2
:1015A00027EA03036363626B06FA01F11143616387
:1015B0002D4B9C4234D0002380F83C30184603B0B9
:1015C000F0BD276905EB45034FF0070E0EFA03FE49
:1015D00027EA0E072761276902FA03F33B432361D9
:1015E000D4E70C2A0ED81344216BA3F123021F2346
:1015F000934021EA03032363236B06FA02F21A43A2
:101600002263D5E71344E16A413B1F229A4021EA55
:101610000202E262E26A06FA03F11143E162C7E7FD
:10162000122D07D1114A536843F480035360C2E777
:101630000220C4E70E4B9D4201D0112DBBD10B49B6
:101640004A689D4242F400024A60B4D1094B0A4AFA
:101650001B68B3FBF2F20A2353430193019B002B57
:10166000A9D0019B013BF8E7002001400023014085
:10167000120000109C01002040420F007047000043
:101680000368F7B5DD07044638D42368980771D49A
:1016900023681E0700F1BD8023685D0728D500235D
:1016A0000193A84BA84D1A6C42F080521A641B6C2F
:1016B00003F080530193019B2B6843F480732B60EC
:1016C000FFF7DEFD06462B68DA0540F1C4809F4B2C
:1016D000227A1A70A368002B00F0CB80FFF7D0FDB0
:1016E000984D064641F288372B6F9B0740F1BA8030
:1016F000A269002A40F0CD80002015E0914B9A6845
:1017000002F00C02042A07D09A6802F00C02082AA0
:101710000CD15B68590209D58A4B1B689A03B4D572
:101720006368002BB1D1012003B0F0BD884B227952
:101730001A7063687BB1FFF7A3FD824D064641F244
:1017400088372B689B03A0D4FFF79AFD801BB84213
:10175000F7D90320E8E7FFF793FD7A4D064641F2FB
:1017600088372B68980390D5FFF78AFD801BB84215
:10177000F7D9EEE7734B9A6812F00C0F07D09A680E
:1017800002F00C02082A16D15B68590213D46D4B83
:101790001A68920702D5E268012AC4D11868F822B3
:1017A00092FAA2F2B2FA82F122698A4020F0F8019C
:1017B0000A431A606CE7E268664BDAB101221A60EC
:1017C000FFF75EFD5F4D06462B689B070CD5296829
:1017D000F82393FAA3F3B3FA83F22369934021F039
:1017E000F80213432B6053E7FFF74AFD801B0228E2
:1017F000EAD9AEE71A60FFF743FD524D06462B6863
:101800009F077FF545AFFFF73BFD801B0228F6D908
:101810009FE76269504B7AB101221A60FFF730FDF1
:10182000484D06466B6F98073FF536AFFFF728FD2A
:10183000801B0228F6D98CE71A60FFF721FD414D85
:1018400006466B6F99077FF527AFFFF719FD801BE1
:101850000228F6D97DE7FFF713FD801B02287FF6EB
:1018600032AF76E7FFF70CFD801BB8427FF63CAF46
:101870006FE7FFF705FD334D064641F288372B6FC2
:1018800098077FF535AFFFF7FBFC801BB842F6D910
:101890005FE72C4DAB6803F00C03082B3FF443AF1C
:1018A0002E4E0023022A33603ED1FFF7E9FC0746A3
:1018B0002B68990132D447F6C07797FAA7F74FF40F
:1018C0004032B7FA87F792FAA2F24FF07061B2FA9B
:1018D00082F091FAA1F1226AE3691343626A02FA83
:1018E00007F7A26A5208013A82403B431343E26A77
:1018F000144CB1FA81F102FA01F10B436B60012340
:101900003360FFF7BDFC054623689A013FF5F4AE4E
:10191000FFF7B6FC401B0228F6D91AE7FFF7B0FC28
:10192000C01B0228C4D914E7FFF7AAFC04462B68A1
:101930009B017FF5E1AEFFF7A3FC001B0228F6D95F
:1019400007E700BF003802400070004070380240D6
:101950000238024000004742800E47426000474282
:10196000194A936803F00C03042B10B503D0082B1D
:1019700003D0164810BD164810BD5168536801F0D9
:101980003F0113F4800F47F6C074536894FAA4F033
:10199000B0FA80F003EA040323FA00F314BF0C4802
:1019A0000A48B0FBF1F05843074B4FF440325B68F4
:1019B00092FAA2F2B2FA82F203F44033D340013336
:1019C0005B00B0FBF3F010BD003802400024F400CF
:1019D00000127A00564B1A6802F00F028A422DE973
:1019E000F04105460E4630D32A68940737D4D00715
:1019F0003DD44F4B1A6802F00F029642C0F0888027
:101A00002A68510700F18C80130707D5494A2969D4
:101A1000936823F4604343EAC1039360FFF7A0FF98
:101A2000444BF0229B6892FAA2F2B2FA82F203F0DF
:101A3000F003D340404AD35CD840404B18600F209D
:101A4000FEF706FE0020BDE8F081CAB21A701B68DE
:101A500003F00F039942C7D00120BDE8F08135495A
:101A6000A8688B6823F0F00303438B60BFE76A68C4
:101A7000304B012A1ED11B6813F4003FECD02D4CD3
:101A8000A36823F003031343A360FFF7F9FB6B681C
:101A9000012B074641F2883816D1A36803F00C03E6
:101AA000042BA6D0FFF7ECFBC01B4045F5D9032063
:101AB000BDE8F081911E01291B6802D813F0007F58
:101AC000DCE713F0020FD9E7022B0AD1A36803F079
:101AD0000C03082B8DD0FFF7D3FBC01B4045F5D975
:101AE000E5E7032B0FD1A36803F00C030C2B80D088
:101AF000FFF7C6FBC01B4045F5D9D8E7FFF7C0FB91
:101B0000C01B4045D3D8A36813F00C0FF6D170E783
:101B1000F2B21A701B6803F00F039E429CD16FE76C
:101B20000449E8688B6823F4E05303438B606BE758
:101B3000003C024000380240786C01089C01002003
:101B4000084B4FF4E0529B6892FAA2F2B2FA82F28A
:101B500003F4E053D340044AD35C044A1068D840ED
:101B6000704700BF00380240786C01089C010020DB
:101B7000084B4FF460429B6892FAA2F2B2FA82F2EA
:101B800003F46043D340044AD35C044A1068D8404D
:101B9000704700BF00380240786C01089C010020AB
:101BA0000F2303600B4B9A6802F0030242609A68AD
:101BB00002F0F00282609A6802F4E052C2609B6810
:101BC000DB0803F4E0530361034B1B6803F00F03CE
:101BD0000B60704700380240003C0240036A23F06B
:101BE00001030362036A70B5446882690D6822F0DC
:101BF00073022A438D6823F002032B430A4DA84247
:101C00000BD1CD688E6923F008032B434D6924F472
:101C10004074354323F004032C43446082614A68D6
:101C20004263036270BD00BF00000140036A23F4F9
:101C300080730362036A70B54468C2690D6822F05C
:101C400073022A438D6823F4007343EA05230B4D86
:101C5000A8420DD1CD688E6923F4006343EA0523C1
:101C60004D6924F44054354323F4806344EA051459
:101C70004460C2614A68C263036270BD00000140F3
:101C8000036A23F480530362036A30B54468C2696F
:101C90000D6822F4E64242EA05228D6823F40053DF
:101CA00043EA0533064DA84202BF4D6924F480443F
:101CB00044EA85144460C2614A680264036230BD2C
:101CC0000000014070477047224A036890420ED0DE
:101CD000B0F1804F0BD0A2F57C42904207D002F5C4
:101CE0008062904203D002F58062904219D14A6826
:101CF00023F070031343174A904204D1CA6823F4B7
:101D00004073134318E0B0F1804FF7D0124A90426D
:101D1000F4D002F580629042F0D002F580629042E9
:101D2000ECD00E4A9042E9D002F580629042E5D0B4
:101D300002F580629042E1D003608B68C3620B6859
:101D40008362044B984204BF0B6903630123436120
:101D5000704700BF00000140000400400040014007
:101D600010B50446A0B190F8393003F0FF021BB95A
:101D700080F83820FFF7A6FF022384F83930206866
:101D8000211DFFF7A1FF012384F83930002010BD89
:101D9000012010BD10B50446A0B190F8393003F011
:101DA000FF021BB980F83820FFF78DFF022384F86B
:101DB00039302068211DFFF787FF012384F839306F
:101DC000002010BD012010BD036A23F01003036240
:101DD000036A70B5446882690D6822F4E64242EAFB
:101DE00005228D6823F0200343EA05130B4DA8421A
:101DF0000DD1CD688E6923F0800343EA05134D6948
:101E000024F44064354323F0400344EA85044460ED
:101E100082614A688263036270BD00BF00000140B6
:101E200038B590F83830012B04464FF0020025D029
:101E3000012384F8383084F839000C2A18D8DFE8F8
:101E400002F0071717171E1717172F17171740003D
:101E50002068FFF7C3FE236809699A6942F0080207
:101E60009A619A6922F004029A619A690A439A6116
:101E70000123002084F8393084F8380038BD206808
:101E8000FFF7A2FF236809699A6942F400629A6128
:101E90009A6922F480629A619A6942EA0122E6E72D
:101EA0002068FFF7C3FE23680969DA6942F0080277
:101EB000DA61DA6922F00402DA61DA690A43DA6186
:101EC000D6E72068FFF7DCFE23680969DA6942F487
:101ED0000062DA61DA6922F48062DA61DA6942EA80
:101EE0000122ECE7036A10B501248C4023EA0403C5
:101EF0000362036A8A401A43026210BD10B50446A9
:101F000001220068FFF7EEFF2368064A934202BFF2
:101F10005A6C42F400425A641A6842F001021A6094
:101F2000002010BD00000140FFF7E8BF036A10B5B4
:101F300004248C4023EA04030362036A8A401A43A0
:101F4000026210BD10B5044604220068FFF7EEFFE0
:101F500023685A6C42F400425A641A6842F0010243
:101F60001A60002010BD00002DE9F0470668C26825
:101F70003369C16923F440531343336104468368D2
:101F80000069F2680343606922F41642034322F0B9
:101F90000C020B431343F3607369A26923F440738B
:101FA0001343B1F5004F73617A4B7CD19E4203D04D
:101FB00003F580639E4244D1FFF7DAFD192505FB46
:101FC00000F360684FF064094000B3FBF0F3B3FB2B
:101FD000F9F34FEA0318FFF7CBFD636868435B0032
:101FE000B0FBF3F7FFF7C4FD636868435B00B0FB29
:101FF000F3F3B3FBF9F309FB1373DB003233B3FBE9
:10200000F9F35B0003F4F877FFF7B2FD6268684309
:102010005200B0FBF2FAFFF7ABFD636868435B0068
:10202000B0FBF3F3B3FBF9F309FB13A3DB0032338B
:10203000B3FBF9F303F0070343443B44B360BDE84B
:10204000F087FFF77DFD192505FB00F360684FF071
:1020500064094000B3FBF0F3B3FBF9F34FEA031854
:10206000FFF76EFD636868435B00B0FBF3F7FFF7B3
:1020700067FD636868435B00B0FBF3F3B3FBF9F300
:1020800009FB1373DB003233B3FBF9F35B0003F49A
:10209000F877FFF755FD626868435200B0FBF2FA2B
:1020A000FFF74EFDB9E79E4202D03B4B9E4240D126
:1020B000FFF75EFD676819254FF0640905FB00F323
:1020C000BF00B3FBF7F3B3FBF9F31F01FFF750FDBC
:1020D000636868439B00B0FBF3F8FFF749FD636852
:1020E00068439B00B0FBF3F3B3FBF9F309FB1383E5
:1020F0001B013233B3FBF9F303F0F008FFF738FDAF
:10210000626868439200B0FBF2FAFFF731FD636842
:1021100068439B00B0FBF3F3B3FBF9F309FB13A394
:102120001B013233B3FBF9F303F00F0343EA080357
:1021300083E7FFF705FD676819254FF0640905FB84
:1021400000F3BF00B3FBF7F3B3FBF9F31F01FFF795
:10215000F7FC636868439B00B0FBF3F8FFF7F0FC03
:10216000636868439B00B0FBF3F3B3FBF9F309FB2F
:1021700013831B013233B3FBF9F303F0F008FFF7CD
:10218000DFFC626868439200B0FBF2FAFFF7D8FC0C
:10219000BDE700BF0010014000140140704710B5BA
:1021A000044640B390F8393003F0FF021BB980F8C1
:1021B0003820FFF7F3FF2268242384F83930D368EE
:1021C00023F40053D3602046FFF7CEFE23681A693C
:1021D00022F490421A615A6922F02A025A61DA689E
:1021E00042F40052DA6000202023E06384F83930A2
:1021F00084F83A3010BD012010BD7FB50F23019344
:10220000022302934FF480520023032101A8039379
:1022100004920593FFF7DEFBB0FA80F0400907B0A7
:102220005DF804FB174A1849936803F00C03042B6C
:1022300010B50DD0082B0DD0144B0B60114B144A68
:102240009B68C3F30313D25C0B68D3400B6010BDD3
:10225000104BF2E75468506852686302C2F3881268
:1022600000F03F004CBF0B4B084BB3FBF0F3534364
:10227000044A5268C2F3014201325200B3FBF2F346
:10228000DBE700BF003802409C0100200024F4007E
:10229000886C010800127A0000B58FB01B4B00213A
:1022A00000911A6C42F080521A641B6C184A03F0B9
:1022B00080530093009B0191136823F4404343F43F
:1022C00000431360136803F440430193019B01230F
:1022D0000293B0B90393022308934FF48003099348
:1022E00004230A930C930823C0220DEB03000B92E6
:1022F0000D93FFF7C5F930B9FFF77FFF0FB05DF819
:1023000004FB0523E6E70020F8E700BF00380240A1
:102310000070004010B58EB000241A4B00941A6C67
:1023200042F080521A641B6C174A03F080530093EA
:10233000009B0194136823F4404343F4004313606B
:102340001368039403F440430193019B099403230E
:10235000029301230593102306930223C0220893BE
:1023600008230B920DEB030004220A930C920D93A9
:10237000FFF786F918B9FFF740FF0EB010BD2046F1
:10238000FBE700BF003802400070004008B50120A4
:10239000FFF782FF30B9FFF77FFF18B9FFF7BAFFE9
:1023A00000B9FEE708BD0000174AD2F8883010B522
:1023B00043F47003154CC2F888302368002143F0C1
:1023C00001032360A160236823F0847323F4803326
:1023D00023600F4B6360236823F4802323604FF056
:1023E0000063E16093600B4B0B4A1A60FEF728FF15
:1023F000FFF7CCFF236A43F008032362236A23F02C
:102400000803236210BD00BF00ED00E00038024069
:10241000103000249C0100200024F400054B1868B3
:1024200030B901221A60044B044A1A60FEF710B951
:10243000704700BF04080020E8080020000C00409E
:1024400008B5044B1B680BB9FFF7E8FF024B586A4D
:1024500008BD00BF04080020000C0040044B054AE2
:1024600013605863DA6842F00202DA60704700BF16
:10247000000C0040E8080020034B044A1360DA68AF
:1024800022F00202DA607047000C0040E8080020E9
:10249000034A044B13606FF002021A61704700BFD9
:1024A000E8080020000C004082B0019000BF02B09C
:1024B000704782B0019000BF02B0704700B583B092
:1024C00001900B46ADF802300A4A019B1A60019850
:1024D00000F046F8019B0433BDF90220114618466E
:1024E000FDF712FF019800F04BF8019B184603B06E
:1024F0005DF804FBA06C010800B585B00190019B5C
:102500001B6808331B6801989847019B04331846E1
:10251000FDF76EFF0390019B1B680C331B6801984D
:102520009847039B184605B05DF804FB82B0019004
:10253000034A019B1A60019B184602B0704700BF16
:10254000A06C010800B583B001900198FFF7EEFF81
:102550000198FEF741FA019B184603B05DF804FBB1
:1025600000B583B00190054800F0A8F8034618466E
:10257000FFF79AFF00BF03B05DF804FB30080020AE
:1025800000B583B00190054800F098F8034618465E
:10259000FFF78FFF00BF03B05DF804FB3008002099
:1025A00010B584B001902949019A13465B00134489
:1025B0009B000B4408331B78002B2DD10C20FEF719
:1025C000FBF903461C462149019A13465B0013445C
:1025D0009B000B44B3F9003019462046FFF76EFF0D
:1025E0001A49019A13465B0013449B000B440433C1
:1025F0001C601649019A13465B0013449B000B4470
:10260000083303221A70019A13465B0013449B009F
:102610000E4A1344039315E00C49019A13465B00DC
:1026200013449B000B4408331B78032B08D1019AF9
:1026300013465B0013449B00044A1344039301E0D8
:1026400000230393039B184604B010BDA001002093
:1026500084B003900B4601928DF80B3000BF04B09C
:10266000704710B588B00390029113468DF807307B
:10267000039B0593059B002B0DD0059B5B681846BB
:10268000FFF73AFF0346184612F02CFD03460C46AE
:10269000CDE9063405E04FF000034FF00004CDE92A
:1026A0000634029ADDE90634C2E9003400BF08B0FE
:1026B00010BD82B0019000BF02B0704700B583B07A
:1026C00001900198FEF78AF90346184603B05DF8B9
:1026D00004FB00B583B001900B46ADF8023010F05A
:1026E000C5FC019BBDF9022011461846FEF7A0FB70
:1026F00010F0E8FC019B184603B05DF804FB00B540
:1027000083B00190009110F0B1FC019B0099184634
:10271000FEF774FA10F0D6FC00BF03B05DF804FBBE
:1027200000B583B00190009110F0A0FC019B0099CE
:102730001846FEF743FC10F0C5FC00BF03B05DF87F
:1027400004FB00B583B001900B46ADF80230019B4D
:10275000BDF9022011461846FFF7BBFF019B184642
:1027600003B05DF804FB000030B587B00390CDE9FD
:1027700000234549039A13465B0013449B000B4416
:1027800008331B78002B65D11820FEF715F9034696
:102790001C463D49039A13465B0013449B000B44BF
:1027A000B3F9003019462046FFF7CBFF3649039AAC
:1027B00013465B0013449B000B4404331C603249F6
:1027C000039A13465B0013449B000B4404331B68BD
:1027D0001D46DDE900234FF000002C4912F004FEF5
:1027E00003460C461846214612F0ACFF0346194634
:1027F0002846FFF795FF2449039A13465B001344CC
:102800009B000B4404331B681D464FF00002204B15
:10281000DDE90A0112F0E8FD03460C4618462146A0
:1028200012F090FF034619462846FFF768FF164945
:10283000039A13465B0013449B000B4408330422A5
:102840001A70039A13465B0013449B000E4A13440C
:10285000059315E00C49039A13465B0013449B0053
:102860000B4408331B78042B08D1039A13465B00F2
:1028700013449B00044A1344059301E0002305938D
:10288000059B184607B030BDA00100200000F03FB6
:102890000000594082B0019000BF02B070470000B4
:1028A00030B587B00390CDE90023039B0593059BCA
:1028B000002B18D0059B1B7A042B14D1059B5B6859
:1028C0001D464FF00002094BDDE9000112F08CFDBE
:1028D00003460C461846214612F034FF03461946BB
:1028E0002846FFF70CFF00BF07B030BD000059407D
:1028F00082B001900091009B002B05D0019B9B684A
:10290000019A12681A6005E0019B1A68019BDB6856
:1029100012041A6000BF02B0704782B00190019BA0
:102920005B681A68019B1B681340002B01D00123D0
:1029300000E00023184602B0704700B583B0019054
:102940000B46ADF80230019B1A460023136053601A
:102950009360D360136153619361019BBDF90220C1
:102960001146184610F0B7FA019B184603B05DF8FF
:1029700004FB00B583B00190019B1846FFF7CDFF23
:102980000346184603B05DF804FB00B583B0019020
:102990000B46ADF80230019B1A46002313605360CA
:1029A0009360D360136153619361019BBDF9022071
:1029B0001146184610F0A2FA019B184603B05DF8C4
:1029C00004FB00B583B001900091019B009918466B
:1029D000FFF78EFF00BF03B05DF804FB10B584B0B5
:1029E00001900B468DF803304E49019A13465B0067
:1029F00013449B000B4408331B78002B5BD19DF8DC
:102A00000330002B25D11C20FDF7D6FF03461C46C2
:102A10004449019A13465B0013449B000B44B3F9ED
:102A2000003019462046FFF788FF3E49019A1346B9
:102A30005B0013449B000B4404331C603949019A2A
:102A400013465B0013449B000B44083301221A70A9
:102A500028E09DF80330012B24D11C20FDF7ACFFAA
:102A600003461C462F49019A13465B0013449B0002
:102A70000B44B3F9003019462046FFF786FF294979
:102A8000019A13465B0013449B000B4404331C6003
:102A90002449019A13465B0013449B000B440833FE
:102AA00002221A70019A13465B0013449B001D4AD0
:102AB0001344039331E01B49019A13465B0013440E
:102AC0009B000B4408331B78012B0CD19DF803307D
:102AD000002B08D1019A13465B0013449B00114A56
:102AE0001344039319E00F49019A13465B00134402
:102AF0009B000B4408331B78022B0CD19DF803304C
:102B0000012B08D1019A13465B0013449B00054A30
:102B10001344039301E000230393039B184604B07E
:102B200010BD00BFA001002000B585B00190019B41
:102B30000293019B002B08D0029B5B681846FFF7AD
:102B400018FF03468DF80F3002E000238DF80F3098
:102B50009DF80F30184605B05DF804FB00B585B050
:102B600001900B468DF80330019B0393019B002BD2
:102B700007D0039B5B689DF8032011461846FFF7BA
:102B800020FF00BF05B05DF804FB000082B00346E3
:102B900000918DF807309DF90730002B0CDA009B6F
:102BA000DAB20C499DF8073003F00F03043B120121
:102BB000D2B20B441A7609E0009BDAB206499DF9BD
:102BC00007301201D2B20B4483F8002300BF02B0D9
:102BD000704700BF00ED00E000E100E000B583B009
:102BE0000190019B013BB3F1807F01D301230FE0F2
:102BF000094A019B013B53600F214FF0FF30FFF763
:102C0000C5FF054B00229A60034B07221A60002380
:102C1000184603B05DF804FB10E000E008B5BFF310
:102C20004F8FBFF36F8F0B4B1A680B4B1B689A4289
:102C300002D3084B00221A60064B1B685A1C054938
:102C40000A60002B03D172B600F052F862B600BFE2
:102C500008BD00BF280900202409002008B5FFF79F
:102C6000DDFF00BF08BD000000B585B001901C4B22
:102C70001B6807EE903AB8EE677ADDED017A67EEF1
:102C8000277AFCEEE77A17EE903A0393039BB3F1B1
:102C9000807F18D3039B07EE903AB8EE677ADFED9A
:102CA000116AC7EE267AFCEEE77A17EE903A013306
:102CB0000D4A13600C4B1B68039AB2FBF3F31846E2
:102CC000FFF78CFF05E0084B00221A600398FFF71E
:102CD00085FF064B00221A6000BF05B05DF804FBBB
:102CE0009C010020FFFF7F4B2409002028090020C1
:102CF00008B50E4B1B785A1CD1B20C4A1170002B30
:102D000009D00B4B01221A60084B1B78013BDAB249
:102D1000064B1A7009E062B606F08AFB72B6034BE6
:102D20001B78013BDAB2014B1A7008BD0C08002079
:102D30000808002000B585B001238DF807301E4B30
:102D400003931E4B0293FEF77BFAFFF76BFA1C4BC3
:102D50001B6800221A600FF0EBFE0398FFF784FF58
:102D6000174B1B681B68002B0CBF01230023DBB231
:102D70008DF8073062B614E0114B1B681B68002BFE
:102D800014BF01230023DBB21A460E4B1A700D4B01
:102D90001B78DBB2002B0CBF01230023DBB28DF8C4
:102DA00007309DF80730DBB2002BE5D10023184631
:102DB00005B05DF804FB00BFACC527370000C84272
:102DC000B06C01080D0800201EF0100F08BFB0EE17
:102DD000400A1EF0040F0CBFEFF30880EFF30980E8
:102DE000816911F8020C10B101280DD00BE01EF022
:102DF000100F0CBF1AB008B003BC80F3118803BCDD
:102E000080F300880847FEE74EF61451CEF2000129
:102E10000A6842F001020A607047F4E700BF00BF91
:102E200010B586B0402303934FF000034FF0000429
:102E3000CDE90434039B202B0AD100F019F8034696
:102E4000184612F04FF903460C46CDE9043407E06A
:102E5000064B019300230093DDE90034CDE90434EF
:102E6000DDE904341846214606B010BD0000F07FAD
:102E700082B04FF0FF430193019B184602B07047A8
:102E800010B586B0402303934FF000034FF00004C9
:102E9000CDE90434039B202B0AD100F019F8034636
:102EA000184612F01FF903460C46CDE9043407E03A
:102EB000064B019300230093DDE90034CDE904348F
:102EC000DDE904341846214606B010BD0000F0FFCD
:102ED00082B0034B0193019B184602B0704700BFBC
:102EE000000080FF10B586B0402303934FF000032D
:102EF0004FF00004CDE90434039B202B0AD100F0ED
:102F000019F80346184612F0EDF803460C46CDE9D1
:102F1000043407E0064B019300230093DDE90034FD
:102F2000CDE90434DDE904341846214606B010BD6D
:102F30000000F8FF82B04FF000030193024B0193B1
:102F4000019B184602B070470000C0FF10B582B068
:102F50000190FFF7C7FF03460C46114AC2E900344F
:102F6000FFF7E8FF02460F4B1A60FFF759FF0346D1
:102F70000C460D4AC2E90034FFF77AFF02460B4BBC
:102F80001A60FFF77DFF03460C46094AC2E9003488
:102F9000FFF79EFF0246074B1A6000BF02B010BD4C
:102FA000C827002030090020400900203C090020EB
:102FB000D0270020DC27002010B582B0CDE9000129
:102FC0000E4BD3E900341A462346DDE9000112F026
:102FD00049FB0346002B0BD1094BD3E900341A46B9
:102FE0002346DDE9000112F03DFB0346002B01D032
:102FF000012300E00023184602B010BD4009002064
:10300000D027002010B586B0CDE9000100238DF84F
:10301000173040230493049B202B0BD1DDE90001E2
:1030200012F090FB0346184600F022F803468DF894
:10303000173016E0DDE90034CDE90234039A0B4B7A
:1030400013400A4A934209D1039BC3F31303002B95
:1030500002D1029B002B01D0012300E000238DF858
:1030600017309DF81730184606B010BD0000F07FED
:1030700084B00190019B0393039B03F0FF43B3F1E2
:10308000FF4F06D1039BC3F31603002B01D001238E
:1030900000E00023DBB2184604B07047064BDA8824
:1030A000013292B2DA80044BDB88C72B02D9024B83
:1030B0000022DA8000BF70473409002088B0034640
:1030C00000918DF80730009B1B6802930023079343
:1030D0000023039305230593052304939DF80730EC
:1030E000002B02D00223069301E001230693009BEC
:1030F0001B68052B02D1069B04933DE0009B1A68D8
:10310000069B9A4238D0009B1B68032B09D1069B73
:10311000012B02D10123049303E002230393012333
:103120000293029B042B09D1069B012B02D10123A0
:10313000049303E00323039301230293029B012BD7
:1031400004D1069B022B01D102230793029B002B83
:1031500001D102230793039B079A9A4201D10023CE
:103160000793069B012B05D1079B022B02D103235A
:10317000059301E0069B0593049B052B04D0049A5C
:10318000009B1A6000230793059B052B02D0059A2C
:10319000009B1A60079B184608B0704710B58AB0AC
:1031A000CDE90201CDE90023DDE90201FFF72AFFA5
:1031B0000346002B06D1DDE90001FFF723FF03469C
:1031C000002B05D07C4BD3E90034CDE90834EDE089
:1031D000DDE902010FF0A4FFCDE90601DDE9000100
:1031E0000FF09EFFCDE90401DDE90001FFF7E4FEE9
:1031F0000346002B49D04FF00002704BDDE9060179
:1032000012F030FA0346002B05D04FF000036B4C50
:10321000CDE90834CAE04FF00002684BDDE9060151
:1032200012F048FA0346002B17D04FF000024FF07F
:103230000003DDE9000112F03DFA0346002B05D042
:103240005F4BD3E90034CDE90834AFE04FF0000321
:103250004FF00004CDE90834A8E04FF000024FF031
:103260000003DDE9000112F025FA0346002B06D029
:103270004FF000034FF00004CDE9083496E0504BC6
:10328000D3E90034CDE9083490E04FF000024FF06C
:103290000003DDE9040112F0E5F90346002B05D037
:1032A0004FF00003454CCDE908347FE04FF00002B9
:1032B000424BDDE9040112F0D5F90346002B1BD087
:1032C0004FF000024FF00003DDE9000112F0F2F9C7
:1032D0000346002B04D0DDE90234CDE9083465E073
:1032E000DDE902234FF00000344912F07DF8034677
:1032F0000C46CDE9083459E04FF000024FF080430E
:10330000DDE9000112F0AEF90346002B0AD0DDE939
:103310000223DDE9020111F03DFF03460C46CDE931
:10332000083443E04FF00002264BDDE9000112F0C3
:1033300099F90346002B11D04FF000024FF0000323
:10334000DDE9020112F0ACF90346002B06D0DDE9FD
:10335000020110F0FFF9CDE9080127E04FF000026B
:103360004FF00003DDE9020112F086F90346002B5D
:1033700014D0DDE900010FF0D7FE03460C461A46D3
:103380002346DDE9000112F095F90346002B05D034
:10339000094BD3E90034CDE9083407E0DDE9002327
:1033A000DDE9020110F038F8CDE90801DDE9083463
:1033B000184621460AB010BDC82700200000F03F83
:1033C000400900200000E03F2DE9F04F89B0039054
:1033D0000291039B0833D3E90023104619460FF0EE
:1033E0009FFECDE90001039BD3E900231046194657
:1033F0000FF096FE02460B46DDE9000112F05AF985
:103400000346002B76D0039BD3E90001039B0833CE
:10341000D3E9002311F0E8FF02460B46CDE906236D
:10342000039B1833D3E90001DDE9062311F0B2FE56
:1034300002460B4610461946039B1033D3E900237E
:1034400011F0F0FC02460B464FF000006A4911F003
:10345000CBFF02460B46CDE90423039B1833D3E987
:103460000001039B0833D3E9002311F0BDFF02469E
:103470000B4610461946DDE9042311F08BFE024687
:103480000B460299C1E90023029B0833049C059A6C
:1034900082F00045C3E90045039B1033D3E90034B3
:1034A0009A4684F0004B039B0833D3E900341A4654
:1034B00023465046594611F097FF03460C461846DE
:1034C0002146029B03F11005DDE9042311F062FEA1
:1034D00003460C46C5E90034029B03F11805DDE9FB
:1034E0000423DDE9060111F055FE03460C46C5E94B
:1034F00000347CE0039B0833D3E90001039BD3E94C
:1035000000341A46234611F06FFF03460C46CDE9FE
:103510000634039B1833D3E90045039B1033D3E9EA
:103520000001DDE9062311F035FE02460B46204678
:10353000294611F077FC03460C461A4623464FF005
:1035400000002D4911F050FF03460C46CDE904342C
:10355000039B1833D3E90001039BD3E900341A46D7
:10356000234611F041FF03460C4618462146DDE98B
:10357000042311F00FFE03460C46029AC2E9003400
:10358000069E079B83F00047029B03F10805DDE9D7
:1035900004233046394611F0FDFD03460C46C5E9CB
:1035A0000034039B1033D3E90034984684F000497B
:1035B000039BD3E900341A4623464046494611F09E
:1035C00013FF03460C4618462146029B03F11005E3
:1035D000DDE9042311F0DEFD03460C46C5E90034A5
:1035E000029B03F11802DDE90434C2E9003400BF94
:1035F00009B0BDE8F08F00BF0000F03F10B58EB0FD
:103600000390029101924FF000034FF00004CDE9C6
:103610000C34039B002B40F39680039B012B0FD1AE
:10362000019B03F10053013BDB00029A1344D3E9F1
:103630000034184621460FF073FDCDE90C0182E0FD
:103640004FF000034FF0E654CDE90A34019A039B92
:103650001344013B0893019B099360E0099B03F12C
:103660000053013BDB00029A1344D3E900341846AF
:1036700021460FF055FDCDE90601DDE90A23DDE91C
:10368000060112F017F80346002B29D0DDE90623C6
:10369000DDE90A0111F0A8FE03460C46CDE9043429
:1036A000DDE90423DDE90C0111F074FD03460C464D
:1036B00018462146DDE9042311F06CFD03460C4653
:1036C000184621464FF00002224B11F0ADFB034695
:1036D0000C46CDE90C34DDE90634CDE90A341BE0B3
:1036E000DDE90A23DDE9060111F07EFE03460C4602
:1036F000CDE90434DDE90423DDE9040111F04AFDDC
:1037000003460C461A462346DDE90C0111F08CFBFA
:1037100003460C46CDE90C34099B01330993099A01
:10372000089B9A429ADDDDE90C0110F013F803467C
:103730000C461A462346DDE90A0111F02BFD03462B
:103740000C46CDE90C34DDE90C34184621460EB0A8
:1037500010BD00BF0000F03F10B586B0CDE90201FA
:10376000CDE90023DDE902010FF0DAFC0A4601464B
:103770005F4B03F5E8531033C3E90012DDE90001A4
:103780000FF0CEFCCDE90401594B03F5E85310339B
:10379000D3E900341A462346DDE9040111F08AFF1B
:1037A0000346002B3FD0524B03F5E8531033D3E9C7
:1037B0000001DDE9042311F017FE03460C4619460B
:1037C00022464B4B03F5E8531033C3E90012484B34
:1037D00003F5E8531033D3E90001454B03F5E853F3
:1037E0001033D3E900341A46234611F0D3FC0346C4
:1037F0000C46184621464FF000023E4B11F014FBD8
:1038000003460C46184621460FF0A4FF03460C461B
:103810001A462346DDE9040111F0BCFC03460C46C0
:10382000CDE9043458E0324B03F5E8531033D3E9C3
:1038300000341A462346DDE9040111F01DFF03465A
:10384000002B33D02A4B03F5E8531033D3E900346F
:103850001A462346DDE9040111F0C6FD03460C4675
:10386000CDE90434DDE90423DDE9040111F092FC23
:1038700003460C46184621464FF000021D4B11F03E
:10388000D3FA03460C46184621460FF063FF184B47
:1038900003F5E8531033D3E900341A46234611F0F8
:1038A00079FC03460C46CDE9043415E0DDE904015A
:1038B000FFF7A8FB0346002B0ED10D4B03F5E85391
:1038C0001033D3E9000108A3D3E9002311F062FC0F
:1038D00003460C46CDE90434DDE90434184621469C
:1038E00006B010BDAFF30080CD3B7F669EA0F63FD3
:1038F000480900200000F03F2DE9F0418EB0039010
:10390000029101924FF000024FF00003DDE9140133
:1039100011F0A8FE0346002B68D1039B0D93019A7A
:10392000039B13440C9305E00D9B013B0D930C9BF3
:10393000013B0C930D9B002B11DD0C9B03F10053FD
:10394000023BDB00169A1344D3E900014FF000025A
:103950004FF0000311F086FE0346002BE4D1029BDA
:10396000013B0C9300238DF8173036E00C9B9B0035
:10397000179A13440B930B9B0793002306930B9A00
:103980000D9B1344013B079A9A4218DC079B03F1F5
:103990000053013BDB00169A1344D3E900014FF0BA
:1039A00000024FF0000311F05DFE0346002B02D130
:1039B0000123069308E0079B0133079304E00C9B67
:1039C000013B0C9302230693069B002BD5D0069B4C
:1039D000012B02D101238DF817309DF81730002BF1
:1039E00009D10C9B0133002BC0DC04E000230D93B4
:1039F0004FF0FF330C930D9B002B40F310810C9B79
:103A0000B3F1FF3F00F0868000230B930CE00B9B8B
:103A1000DB00189AD1184FF000024FF00003C1E903
:103A200000230B9B01330B930B9A0C9B9A42EEDD08
:103A300000230B930C9B9B00179A13440793179B2F
:103A4000099363E0019B0A93774B03F5E95318331D
:103A50004FF000014FF00002C3E90012099A0D9BDC
:103A60001344013B0493099B08932FE06E4B03F52D
:103A7000E9531833D3E90067089B03F10053013B76
:103A8000DB00169A1344D3E900010A9B03F10053AB
:103A9000013BDB00169A1344D3E9002311F07AFBB3
:103AA00002460B463046394611F0BEF902460B4637
:103AB00011461A465C4B03F5E9531833C3E900126B
:103AC0000A9B01330A93089B01330893089A049BCD
:103AD0009A42CBDD0B9BDB00189A1344D3E900011B
:103AE000514B03F5E9531833D3E900230B9EF6003D
:103AF000189F3E4411F098F902460B46C6E9002390
:103B00000B9B01330B93099B04330993099A079B81
:103B10009A4297DD4FF000024FF00003DDE91401F7
:103B200011F0A0FD0346002B00D078E0179B013B6D
:103B30000B9300230793002309936CE0079BDB00A2
:103B4000189A1344D3E900014FF000024FF000032C
:103B500011F088FD0346002B54D1079BDB00189A17
:103B60001344D3E90001149C159B83F000452246C1
:103B70002B4611F00FFB02460B4611461A462A4B04
:103B800003F5E9531833C3E90012019B0A930D9A18
:103B90000B9B134404930B9B08932FE0089BDB00C3
:103BA000169A1344D3E900670A9B03F10053013BC3
:103BB000DB00169A1344D3E900011B4B03F5E953CC
:103BC0001833D3E9002311F0E5FA02460B461046FC
:103BD0001946089BDB00169A02EB030802460B46C7
:103BE0003046394611F020F902460B46C8E9002359
:103BF0000A9B01330A93089B01330893089A049B9C
:103C00009A42CBDB079B013307930B9B04330B9347
:103C1000099B01330993099A0C9B9A428EDD00BFE0
:103C20000EB0BDE8F08100BF480900202DE9F04743
:103C30009EB013901291584B03F5B55210324FF0CD
:103C400000034FF00004C2E90034534B03F5B552B2
:103C500018324FF000034FF00004C2E900344E4B1D
:103C600003F5B6524FF000034FF00004C2E90034F0
:103C7000494B03F5B65208324FF000034FF00004F1
:103C8000C2E90034139BD3E90212434B03F5E85316
:103C90001833C3E90012404B03F5E9524FF000031B
:103CA0004FF00004C2E90034032213990220FFF709
:103CB000A5FC0A460146384B03F5E9530833C3E92E
:103CC0000012354B03F5E9530833D3E900014FF0F7
:103CD00000024FF0000311F0C5FC0346002B40F03A
:103CE0003A82139B0833D3E900012B4B03F5E953C8
:103CF0000833D3E900341A462346FFF72DFD0A4660
:103D00000146254B03F5E9530833C3E90012139B21
:103D10000833D3E900014FF000024FF0000311F027
:103D2000BFFC0346002B0ED01B4B03F5E9530833B1
:103D3000D3E900341D4684F00046174B03F5E953E0
:103D40000833C3E90056144B03F5E9530833D3E9AC
:103D50000034184621460FF0E3F94FF000024FF00F
:103D6000547311F089FC0346002B00F061810A4B6B
:103D700003F5EC521C324FF0FF331360064B03F592
:103D8000EC531C331B685A1C034B03F5EC531C33D8
:103D90001A6003231D931DE0480900201D9B03F1B9
:103DA0000053013BDA00139B1344D3E900011D9B30
:103DB00003F10053013BDA00139B9D184FF0000202
:103DC000984B11F0E7F903460C46C5E900341D9BFA
:103DD00001331D931D9B042BE0DD934B03F5E95349
:103DE0000833D3E900014FF000028E4B11F0D2F9F5
:103DF00003460C46194622468B4B03F5E95308331C
:103E0000C3E90012884B03F5E8531833D3E90001E6
:103E10004FF00002834B11F0BDF903460C461946E2
:103E20002246814B03F5E8531833C3E900127E4B59
:103E300003F5E9530833D3E90034184621460FF05F
:103E40006FF901231C464FF000024FF0547311F03C
:103E500027FC0346002B01D100231C46E3B283F06C
:103E60000103DBB2002B89D16F4B03F5E853183304
:103E7000D3E90056032213990220FFF7BFFB034644
:103E80000C461A46234628463146FFF765FC0A468B
:103E90000146654B03F5E9530833C3E90012624B51
:103EA00003F5E8531833D3E900014FF000024FF057
:103EB000000311F0F5FB0346002B0ED05A4B03F51F
:103EC000E9530833D3E900341F4684F00048564BC9
:103ED00003F5E9530833C3E90078534B03F5E9537D
:103EE0000833D3E90001504B03F5E8531833D3E905
:103EF00000341A46234610F095FF03460C46184638
:103F00002146494B03F5E9530833D3E900341A46F7
:103F1000234611F069FA03460C4619462246424BE5
:103F200003F5E953C3E900123F4B03F5E853183397
:103F3000D3E900013C4B03F5E9530833D3E90034DE
:103F40001A46234610F06EFF03460C461A462346D7
:103F50004FF00000354911F047FA03460C46194668
:103F60002246314B03F5E8531833C3E9001203230B
:103F70001D9322E01D9B03F10053013BDA00139BCC
:103F80001344D3E90067284B03F5E8531833D3E90A
:103F900000011D9B03F10053013BDA00139B9D18A8
:103FA00002460B463046394611F0F4F803460C46FB
:103FB000C5E900341D9B01331D931D9B042BD9DDE6
:103FC00000231D9318E0184B03F5E9530833D3E998
:103FD00000014FF000024FF0547311F0DBF803467C
:103FE0000C4619462246104B03F5E9530833C3E942
:103FF00000121D9B01331D930B4B03F5EC531C3337
:104000001A681D9B9342DEDD074B03F5E953083325
:10401000D3E90012044B03F5E8531833C3E9001247
:1040200099E000BF0000907C480900200000F03FAC
:10403000B34B03F5E9530833D3E90001139B08336D
:10404000D3E900341A46234610F0ECFE03460C4632
:1040500018462146AA4B03F5E9530833D3E9003447
:104060001A46234611F0C0F903460C46194622466B
:10407000A34B03F5E953C3E90012139B0833D3E9BB
:1040800000019F4B03F5E9530833D3E900341A4686
:10409000234610F0C7FE03460C461A4623464FF04F
:1040A0000000984911F0A0F903460C461946224633
:1040B000934B03F5E8531833C3E90012904B03F513
:1040C000EC531C3303221A6032E08D4B03F5EC53A2
:1040D0001C331B6803F10053013BDA00139B1344AC
:1040E000D3E90067864B03F5E8531833D3E90001A1
:1040F000834B03F5EC531C331B6803F10053013B66
:10410000DA00139B9D1802460B463046394611F0E3
:1041100041F803460C46C5E90034794B03F5EC53EE
:104120001C331B685A1C764B03F5EC531C331A6086
:10413000734B03F5EC531C331B68042BC5DD704B2C
:1041400003F5E9530833D3E900126D4B03F5E85347
:104150001833C3E900126A4B03F5E953D3E900129F
:10416000129BC3E90012139B03F108024FF00003F6
:10417000644CC2E90034624B03F5E953D3E9000112
:104180004FF000024FF0000311F06CFA0346002BD1
:1041900074D15B4B03F5EC531C3302221A600323EA
:1041A0001D930DE0564B03F5EC531C331B685A1E50
:1041B000534B03F5EC531C331A601D9B013B1D93BD
:1041C0004F4B03F5EC531C331B680133002B0EDD02
:1041D0001D9BDA00139B1344D3E900014FF000024A
:1041E0004FF0000311F03EFA0346002BDAD104230E
:1041F0001D9300238DF85B3038E01D9B04331C9326
:104200001C9B1993002317933D4B03F5EC531C3370
:104210001B689A001C9B1A44199B934218DC199B3B
:1042200003F10053013BDA00139B1344D3E900016F
:104230004FF000024FF0000311F014FA0346002B78
:1042400002D10123179308E0199B0433199304E06A
:104250001D9B013B1D9302231793179B002BD1D06D
:10426000179B012B02D101238DF85B309DF85B3049
:10427000002B0CD11D9B002BBFDC08E0204B03F56D
:10428000EC531C334FF0FF321A6000231D931C4B7C
:1042900003F5EC531C331B680133002B40F30981F9
:1042A0001D9B002B73D000231C930EE0144A1C9B13
:1042B00003F2D623DB001A444FF000034FF0000452
:1042C000C2E900341C9B01331C931C9A1D9B9A422B
:1042D000ECDB01231C930A4B03F5EC531C331B68E6
:1042E0009B000533199305231B934CE0002318937F
:1042F0001B9A1D9B1344013B15931B9B1A9338E09B
:10430000480900200000F03F464A189B03F2D623DC
:10431000DB001344D3E900561A9B03F10053013B21
:10432000DA00139B1344D3E900011C9BDA00139BB2
:104330001344D3E900341A46234610F02BFF0346FA
:104340000C461A4623462846314610F06DFD0346BA
:104350000C4618462146334A189B03F2D623DB004D
:104360001344C3E90001189B013318931A9B0133CE
:104370001A931A9A159B9A42C6DD1C9B01331C9313
:104380001B9B04331B931B9A199B9A42AEDD254B52
:1043900003F5E953D3E900014FF000024FF00003A9
:1043A00011F060F90346002B40F0838004231C9336
:1043B0000123199300231B9373E0199BDA00139BCD
:1043C0001344D3E900014FF000024FF0000311F055
:1043D00049F90346002B5BD1199BDA00139B134468
:1043E000D3E900010F4B03F5E953D3E900340693F9
:1043F00084F000430793DDE9062310F0CBFE03466B
:104400000C4619462246074B03F5E9530833C3E926
:104410000012002318931D9A1C9B134415931C9B98
:104420001A9331E0480900201A9BDA00139B1344C9
:10443000D3E90067BA4A189B03F2D623DB00134482
:10444000D3E90001B64B03F5E9530833D3E900344F
:104450001A46234610F09EFE03460C461846214697
:104460001A9BDA00139B9D1802460B4630463946CC
:1044700010F0DAFC03460C46C5E90034189B013302
:1044800018931A9B01331A931A9A159B9A42CBDB05
:10449000199B013319931C9B04331C931B9B013301
:1044A0001B939F4B03F5EC531C331A681B9B9342E1
:1044B00083DD9B4B03F5E953D3E90012994B049339
:1044C00006230393139B0293CDE9001202220321DA
:1044D0000320FFF711FA139B03F10802904B03F539
:1044E000E8531833D3E90034C2E90034139BD3E90D
:1044F0000C128B4B03F5E8531833C3E90012884BB9
:1045000003F5E9524FF000034FF00004C2E9003414
:10451000082213990120FFF771F80A460146804BE3
:1045200003F5E9530833C3E900127D4B03F5E95362
:104530000833D3E900014FF000024FF0000311F0FF
:1045400091F80346002B40F0DA81139B3033D3E916
:104550000001734B03F5E9530833D3E900341A46DD
:104560002346FFF7F9F80A4601466D4B03F5E95378
:104570000833C3E90012139B3033D3E900014FF035
:1045800000024FF0000311F08BF80346002B0ED011
:10459000634B03F5E9530833D3E90034994684F0BB
:1045A000004A5F4B03F5E9530833C3E9009A5C4BBB
:1045B00003F5E9530833D3E90034184621460EF0D9
:1045C000AFFD4FF000024FF0547311F055F8034661
:1045D000002B00F03981524B03F5EC531C334FF0A4
:1045E000FF321A604E4B03F5EC531C331B685A1C08
:1045F0004B4B03F5EC531C331A60139B3833D3E950
:104600000001139B03F138054FF00002464B10F0F8
:10461000C1FD03460C46C5E90034414B03F5E9539F
:104620000833D3E900014FF000023F4B10F0B2FD18
:1046300003460C4619462246394B03F5E953083325
:10464000C3E90012364B03F5E8531833D3E90001F0
:104650004FF00002344B10F09DFD03460C46194606
:1046600022462F4B03F5E8531833C3E900122C4BB5
:1046700003F5E9530833D3E90034184621460EF018
:104680004FFD01231C464FF000024FF0547311F010
:1046900007F80346002B01D100231C46E3B283F048
:1046A0000103DBB2002B9DD11D4B03F5E8531833FA
:1046B000D3E90045082213990120FEF79FFF024627
:1046C0000B4620462946FFF747F80A460146144B99
:1046D00003F5E9530833C3E90012114B03F5E8531E
:1046E0001833D3E900014FF000024FF0000310F03F
:1046F000D7FF0346002B19D0094B03F5E9530833C4
:10470000D3E90034089384F000430993044B03F584
:10471000E95308339DED087B83ED007B06E000BF85
:1047200048090020F81F00200000907CB34B03F5DF
:10473000E9530833D3E90001B04B03F5E8531833CC
:10474000D3E900341A46234610F06CFB03460C46AE
:1047500018462146A94B03F5E9530833D3E9003441
:104760001A46234610F040FE03460C46A34A02F5C3
:10477000E952C2E90034A14B03F5E8531833D3E9F9
:1047800000019E4B03F5E9530833D3E900341A4680
:10479000234610F047FB03460C461A4623464FF0CB
:1047A0000000974910F020FE03460C4619462246A9
:1047B000924B03F5E8531833C3E90012139B3833C7
:1047C000D3E900018D4B03F5E8531833D3E90034E6
:1047D000139A02F138051A46234610F0DBFC034613
:1047E0000C46C5E9003400231D9318E0834B03F504
:1047F000E9530833D3E900014FF000024FF054733E
:1048000010F0C8FC03460C46194622467B4B03F5C4
:10481000E9530833C3E900121D9B01331D93774B05
:1048200003F5EC531C331B681D9A9A42DEDD734B73
:1048300003F5E9530833D3E90012704B03F5E8534D
:104840001833C3E900125AE06C4B03F5E9530833FF
:10485000D3E90001139B3033D3E900341A462346D1
:1048600010F0E0FA03460C4618462146634B03F568
:10487000E9530833D3E900341A46234610F0B4FD57
:1048800003460C465D4A02F5E952C2E90034139B27
:104890003833D3E90067139B3033D3E90001574B1A
:1048A00003F5E9530833D3E900341A46234610F0E0
:1048B000B9FA03460C461A4623464FF00000504909
:1048C00010F092FD03460C4619462246139B03F155
:1048D000380513460A463046394610F05BFC03465D
:1048E0000C46C5E90034454B03F5E9530833D3E9D9
:1048F0000012424B03F5E8531833C3E90012129B30
:1049000003F108023D4B03F5E953D3E90034C2E952
:104910000034139B03F130024FF00003384CC2E91E
:104920000034364B03F5E953D3E900014FF00002A0
:104930004FF0000310F096FE0346002B78D12F4B6A
:1049400003F5EC531C3301221A6007231D930DE07D
:104950002A4B03F5EC531C331B685A1E274B03F5F7
:10496000EC531C331A601D9B013B1D93234B03F535
:10497000EC531C331B680133002B0EDD1D9BDB0049
:10498000139A1344D3E900014FF000024FF00003E3
:1049900010F068FE0346002BDAD104231D93002398
:1049A0008DF85B303CE01D9B08331C931C9B1993D6
:1049B00000231793114B03F5EC531C331B689A002B
:1049C0001C9B1344199A9A421CDC199B03F1005357
:1049D000013BDB00139A1344D3E900014FF00002BE
:1049E0004FF0000310F03EFE0346002B02D10123DE
:1049F00017930CE0199B0433199308E04809002031
:104A00000000F03F1D9B013B1D9302231793179B52
:104A1000002BCDD0179B012B02D101238DF85B30E9
:104A20009DF85B30002B0CD11D9B002BBBDC08E0FC
:104A3000644B03F5EC531C334FF0FF321A60002334
:104A40001D93604B03F5EC531C331B680133002BA3
:104A500040F3FD801D9B002B69D000231C930EE0CA
:104A6000584A1C9B03F2D623DB001A444FF0000384
:104A70004FF00004C2E900341C9B01331C931C9AC4
:104A80001D9B9A42ECDB06231C934E4B03F5EC5323
:104A90001C331B689B000933199309231B9342E0C5
:104AA000002318931B9A1D9B1344013B15931B9BDA
:104AB0001A932EE0434A189B03F2D623DB001344DB
:104AC000D3E900451A9B03F10053013BDB00139A25
:104AD0001344D3E900011C9BDB00139A1344D3E970
:104AE000002310F057FB02460B462046294610F0E3
:104AF0009BF903460C463349189A02F2D622D2009B
:104B00000A44C2E90034189B013318931A9B0133FD
:104B10001A931A9A159B9A42CCDD1C9B01331C9365
:104B20001B9B04331B931B9A199B9A42B8DD254BA0
:104B300003F5E953D3E900014FF000024FF0000301
:104B400010F090FD0346002B40F0818008231C9359
:104B50000623199300231B9371E0199BDB00139A22
:104B60001344D3E900014FF000024FF0000310F0AE
:104B700079FD0346002B59D1199BDB00139A13448E
:104B8000D3E900010F4B03F5E953D3E900340A934D
:104B900084F000430B93DDE90A2310F0FBFA03468F
:104BA0000C4619462246074B03F5E9530833C3E97F
:104BB0000012002318931D9A1C9B134415931C9BF1
:104BC0001A932FE0480900201A9BDB00139A134424
:104BD000D3E90045BB4A189B03F2D623DB001344FC
:104BE000D3E90001B74B03F5E9530833D3E90023B8
:104BF00010F0D0FA02460B46104619461A9BDB000D
:104C0000139AD61802460B462046294610F00CF996
:104C100003460C46C6E90034189B013318931A9BCF
:104C200001331A931A9A159B9A42CDDB199B0133D3
:104C300019931C9B04331C931B9B01331B93A14BA7
:104C400003F5EC531C331B681B9A9A4285DD9D4B80
:104C500003F5E953D3E900349B4A04920B220392F3
:104C6000139A0292CDE90034072202210220FEF7B6
:104C700043FE139B03F13002924B03F5E8531833C4
:104C8000D3E90034C2E90034139BD3E916128D4BEB
:104C900003F5E8531833C3E900128A4B03F5E952D0
:104CA0004FF000034FF00004C2E900340C221399C6
:104CB0000020FEF7A3FC0A460146824B03F5E953A8
:104CC0001033C3E900127F4B03F5E9531033D3E9E6
:104CD00000014FF000024FF0000310F0C3FC034648
:104CE000002B40F06881139B5833D3E90001754BCA
:104CF00003F5E9531033D3E900341A462346FEF78F
:104D00002BFD0A4601466F4B03F5E9530833C3E90F
:104D10000012139B5833D3E900014FF000024FF00B
:104D2000000310F0BDFC0346002B11D0654B03F5CA
:104D3000E9530833D3E900340C9384F000430D9316
:104D4000604B03F5E95308339DED0C7B83ED007B4D
:104D50005C4B03F5E9530833D3E900341846214688
:104D60000EF0DEF94FF000024FF0547310F084FCA7
:104D70000346002B00F0F080524B03F5EC531C333C
:104D80004FF0FF321A604F4B03F5EC531C331B6896
:104D90005A1C4C4B03F5EC531C331A60494B03F57A
:104DA000E9530833D3E900014FF00002474B10F0FC
:104DB000F1F903460C4619462246424B03F5E953E6
:104DC0000833C3E900123F4B03F5E8531833D3E926
:104DD00000014FF000023D4B10F0DCF903460C4699
:104DE00019462246374B03F5E8531833C3E900123E
:104DF000344B03F5E9530833D3E900341846214610
:104E00000EF08EF901231C464FF000024FF0547350
:104E100010F046FC0346002B01D100231C46E3B2F0
:104E200083F00103DBB2002BADD1264B03F5E85331
:104E30001833D3E90001234B03F5E9531033D3E9C9
:104E400000341A462346FEF787FC0A4601461D4BEE
:104E500003F5E9530833C3E900121A4B03F5E8538D
:104E60001833D3E900014FF000024FF0000310F0B7
:104E700017FC0346002B11D0124B03F5E9530833FE
:104E8000D3E900340E9384F000430F930D4B03F5E8
:104E9000E95308339DED0E7B83ED007B094B03F551
:104EA000E9530833D3E90001064B03F5E8531833FF
:104EB000D3E900341A4623460FF0B4FF03460C46EC
:104EC00006E000BF48090020F81F00200000907C89
:104ED00018462146A34B03F5E9530833D3E90034C0
:104EE0001A46234610F080FA03460C469D4A02F506
:104EF000E952C2E9003400231D9318E0994B03F5F1
:104F0000E9530833D3E900014FF000024FF0547326
:104F100010F040F903460C4619462246914B03F522
:104F2000E9530833C3E900121D9B01331D938D4BD8
:104F300003F5EC531C331B681D9A9A42DEDD894B46
:104F400003F5E9530833D3E90012864B03F5E85320
:104F50001833C3E900122EE0824B03F5E9530833FE
:104F6000D3E90001139B5833D3E900341A46234692
:104F70000FF058FF03460C4618462146794B03F5BF
:104F8000E9530833D3E900341A46234610F02CFACB
:104F900003460C46734A02F5E952C2E90034714BEC
:104FA00003F5E9530833D3E900126E4B03F5E853D8
:104FB0001833C3E90012129B03F11002694B03F589
:104FC000E953D3E90034C2E90034139B03F15802DA
:104FD0004FF00003644CC2E90034624B03F5E9531F
:104FE000D3E900014FF000024FF0000310F03AFB4C
:104FF0000346002B74D15B4B03F5EC531C330022AA
:105000001A600B231D930DE0564B03F5EC531C3334
:105010001B685A1E534B03F5EC531C331A601D9B3F
:10502000013B1D934F4B03F5EC531C331B680133BD
:10503000002B0EDD1D9BDB00139A1344D3E9000106
:105040004FF000024FF0000310F00CFB0346002B62
:10505000DAD104231D9300238DF85B3038E01D9BCB
:105060000C331C931C9B1993002317933D4B03F5A2
:10507000EC531C331B689A001C9B1344199A9A42E8
:1050800018DC199B03F10053013BDB00139A134416
:10509000D3E900014FF000024FF0000310F0E2FAF4
:1050A0000346002B02D10123179308E0199B043318
:1050B000199304E01D9B013B1D9302231793179B3B
:1050C000002BD1D0179B012B02D101238DF85B302F
:1050D0009DF85B30002B0CD11D9B002BBFDC08E042
:1050E000204B03F5EC531C334FF0FF321A600023C2
:1050F0001D931C4B03F5EC531C331B680133002B31
:1051000040F3FE801D9B002B6DD000231C930EE00E
:10511000144A1C9B03F2D623DB001A444FF0000311
:105120004FF00004C2E900341C9B01331C931C9A0D
:105130001D9B9A42ECDB0B231C930A4B03F5EC53AB
:105140001C331B689B000D3319930D231B9346E002
:10515000002318931B9A1D9B1344013B15931B9B23
:105160001A9332E0480900200000F03F754A189B6E
:1051700003F2D623DB001344D3E900451A9B03F165
:105180000053013BDB00139A1344D3E900011C9B3D
:10519000DB00139A1344D3E900230FF0FBFF024610
:1051A0000B46204629460FF03FFE03460C46654954
:1051B000189A02F2D622D2000A44C2E90034189B9F
:1051C000013318931A9B01331A931A9A159B9A422A
:1051D000CCDD1C9B01331C931B9B04331B931B9A3C
:1051E000199B9A42B4DD574B03F5E953D3E900010B
:1051F0004FF000024FF0000310F034FA0346002B8A
:105200007ED10C231C930B23199300231B936FE077
:10521000199BDB00139A1344D3E900014FF00002FD
:105220004FF0000310F01EFA0346002B57D1199BD4
:10523000DB00139A1344D3E90001424B03F5E95311
:10524000D3E90034109384F000431193DDE9102377
:105250000FF0A0FF03460C4619462246394B03F5D2
:10526000E9530833C3E90012002318931D9A1C9BCD
:10527000134415931C9B1A932DE01A9BDB00139A81
:105280001344D3E900452F4A189B03F2D623DB00D1
:105290001344D3E900012B4B03F5E9530833D3E959
:1052A00000230FF077FF02460B46104619461A9B63
:1052B000DB00139AD61802460B46204629460FF00B
:1052C000B3FD03460C46C6E90034189B013318931E
:1052D0001A9B01331A931A9A159B9A42CDDB199B9C
:1052E000013319931C9B04331C931B9B01331B93A9
:1052F000144B03F5EC531C331B681B9A9A4287DD51
:10530000104B03F5E953D3E900340F4A04921022FD
:105310000392139A0292CDE900340C22012101205C
:10532000FEF7EAFA139B03F15802064B03F5E85324
:105330001833D3E90034C2E9003400BF1EB0BDE821
:10534000F08700BF48090020F81F002030B587B063
:10535000019000914FF000034FF00004CDE90434B8
:10536000019B002B40F3E280019B012B0AD1009BA3
:105370000833D3E90034184621460DF0D1FECDE9BB
:105380000401D3E06C4B03F5EA5308334FF00001FE
:105390004FF0E652C3E9001202230393ACE0039BF3
:1053A00003F10053013BDB00009A1344D3E90034BE
:1053B000184621460DF0B4FE0A4601465E4B03F541
:1053C000EA531033C3E900125B4B03F5EA53103381
:1053D000D3E90001584B03F5EA530833D3E900340D
:1053E0001A46234610F066F90346002B4BD0524B69
:1053F00003F5EA530833D3E900014F4B03F5EA53B1
:105400001033D3E900341A4623460FF0EDFF03466C
:105410000C4619462246484B03F5EA531833C3E9B4
:105420000012454B03F5EA531833D3E90001DDE9D7
:1054300004230FF0AFFE03460C46184621463E4BB0
:1054400003F5EA531833D3E900341A4623460FF024
:10545000A1FE03460C46184621464FF00002374B8A
:105460000FF0E2FC03460C46CDE90434324B03F561
:10547000EA531033D3E900122F4B03F5EA530833F4
:10548000C3E9001235E02C4B03F5EA531033D3E99E
:105490000001294B03F5EA530833D3E900341A46D7
:1054A00023460FF0A1FF03460C4619462246224B25
:1054B00003F5EA531833C3E900121F4B03F5EA530F
:1054C0001833D3E900011C4B03F5EA531833D3E931
:1054D00000341A4623460FF05DFE03460C461A467A
:1054E0002346DDE904010FF09FFC03460C46CDE99D
:1054F0000434039B01330393019B0133039A9A42C3
:105500007FF74DAF0C4B03F5EA530833D3E9004561
:10551000DDE904010EF01EF902460B46204629463D
:105520000FF038FE03460C46CDE90434DDE90434BF
:105530001846214607B030BD480900200000F03F62
:10554000F0B589B00390029101924FF000024FF044
:105550000003CDE90623039B002B40F3C581039B89
:10556000013B01991846FFF7F1FE02460B46AC4994
:1055700001F5EA51C1E90023A94B03F5EA53D3E948
:1055800000014FF000024FF0000310F06BF80346EB
:10559000002B40F0A981029BD3E90001A04B03F549
:1055A000EA53D3E90023FEF7D7F802460B469C499D
:1055B00001F5EA51C1E90023029BD3E900014FF054
:1055C00000024FF0000310F06BF80346002B0CD0E4
:1055D000934B03F5EA53D3E90023164683F00047C3
:1055E0008F4B03F5EA53C3E900678D4B03F5EA538C
:1055F000D3E90023104619460DF092FD4FF000024A
:105600004FF0547310F038F80346002B00F00E8171
:105610004FF0FF330593059B01330593012304935A
:1056200015E0049BDB00019A1344D3E90001049BBD
:10563000DB00019AD6184FF000027A4B0FF0AAFD5A
:1056400002460B46C6E90023049B01330493049AE7
:10565000039B9A42E5DB724B03F5EA53D3E9000161
:105660004FF000026F4B0FF095FD02460B466C4960
:1056700001F5EA51C1E90023029BD3E900014FF093
:105680000002684B0FF086FD02460B460299C1E905
:105690000023634B03F5EA53D3E900231046194670
:1056A0000DF03EFD01231E464FF000024FF05473F3
:1056B0000FF0F6FF0346002B01D100231E46F3B284
:1056C00083F00103DBB2002BA5D1029BD3E9006775
:1056D000039B013B01991846FFF738FE02460B4633
:1056E00030463946FEF738F802460B464C4901F57C
:1056F000EA51C1E90023029BD3E900014FF0000207
:105700004FF000030FF0CCFF0346002B0CD0444BAE
:1057100003F5EA53D3E90023144683F00045404BD8
:1057200003F5EA53C3E900453D4B03F5EA53D3E9DA
:105730000001029BD3E900341A4623460FF072FBA6
:1057400003460C4618462146354B03F5EA53D3E988
:1057500000341A4623460FF047FE03460C46CDE9B7
:105760000634029BD3E900012D4B03F5EA53D3E93C
:1057700000341A4623460FF055FB03460C461A46E2
:1057800023464FF0000028490FF02EFE03460C463A
:10579000029AC2E900340123049317E0049BDB0062
:1057A000019A1344D3E90001029BD3E90034049A1F
:1057B000D200019D15441A4623460FF0EBFC034628
:1057C0000C46C5E90034049B01330493049A039BFF
:1057D0009A42E3DB0023049314E0114B03F5EA53F0
:1057E000D3E900014FF000024FF054730FF0D2FCE8
:1057F00003460C460A4A02F5EA52C2E90034049B09
:1058000001330493049A059B9A42E6DD044B03F5A9
:10581000EA53D3E90034029AC2E9003464E000BFDD
:10582000480900200000907C0000F03F314B03F558
:10583000EA53D3E90001029BD3E900341A46234618
:105840000FF0F0FA03460C4618462146294B03F5A3
:10585000EA53D3E900341A4623460FF0C5FD034648
:105860000C46CDE90634029BD3E90001214B03F538
:10587000EA53D3E900341A4623460FF0D3FA03461D
:105880000C461A4623464FF000001B490FF0ACFDB2
:1058900003460C46029AC2E900340123059317E03F
:1058A000059BDB00019A1344D3E90001029BD3E975
:1058B0000034059AD200019D15441A4623460FF084
:1058C00069FC03460C46C5E90034059B013305938A
:1058D000059A039B9A42E3DB064B03F5EA53D3E9AF
:1058E0000034029AC2E90034DDE906341846214644
:1058F00009B0F0BD480900200000F03F2DE9F04755
:1059000096B01390129111921093119BD3E900015C
:105910004FF000024FF000030FF0A4FE0346002BEF
:105920000ED0229A4FF00003A74CC2E90034239A0C
:105930004FF000034FF00004C2E9003400F073BFE1
:10594000129BD3E900014FF000024FF000030FF06B
:1059500089FE0346002B36D0229A4FF000034FF009
:105960000004C2E90034239A4FF00003964CC2E9C8
:105970000034109BD3E90012944B03F5E75308332E
:10598000C3E90012139BD3E90034109AC2E9003432
:105990008E4B03F5E7530833D3E90034139AC2E979
:1059A0000034119BD3E900341D4684F00046129B5D
:1059B000C3E90056119A4FF000034FF00004C2E90A
:1059C000003400F030BF139BD3E90001109BD3E9F2
:1059D00000341A4623460FF025FA03460C461946B2
:1059E00022467A4B03F5E8530833C3E90012774B9C
:1059F00003F5E8530833D3E900014FF000024FF0FC
:105A000000030FF02FFE0346002B34D0129BD3E986
:105A1000000101231C464FF000024FF000030FF07D
:105A20002BFE0346002B01D100231C46E4B2119B40
:105A3000D3E9000101231D464FF000024FF000039F
:105A40000FF01AFE0346002B01D100231D46EBB2D6
:105A50006340DBB2002B0ED0229A4FF000035A4C69
:105A6000C2E90034239A4FF000034FF00004C2E96A
:105A7000003400F0D8BE554B03F5E8530833D3E9A2
:105A800000014FF00002524B0FF084FB03460C461E
:105A9000194622464D4B03F5E753C3E90012129B0A
:105AA000D3E90034184621460DF03AFB0A46014678
:105AB000464B03F5E7531033C3E90012119BD3E9BA
:105AC0000034184621460DF02BFB0A4601463F4B99
:105AD00003F5E853C3E900123C4B03F5E7531033D9
