:020000040800F2
:1000000000000220DD110008111200081112000882
:10001000111200081112000811120008000000005F
:100020000000000000000000000000003D29000862
:10003000111200080000000011120008C527000876
:100040001112000811120008111200081112000804
:1000500011120008111200081112000811120008F4
:1000600011120008111200081112000811120008E4
:1000700011120008111200081112000811120008D4
:1000800011120008111200081112000800000000EF
:100090000000000000000000000000001112000835
:1000A00011120008111200081112000811120008A4
:1000B0001112000811120008111200081112000894
:1000C0001112000811120008111200081112000884
:1000D000111200081112000811120008000000009F
:1000E000111200081112000811120008000000008F
:1000F00000000000000000000000000011120008D5
:10010000000000001112000811120008111200086E
:1001100000000000000000000000000000000000DF
:100120001112000811120008111200081112000823
:100130001112000800000000000000000000000094
:100140000000000000000000000000001112000884
:1001500011120008111200081112000811120008F3
:100160001112000811120008000000000000000039
:10017000000000000000000000000000000000007F
:100180000000000011120008000000000000000044
:10019000111200081112000810B5054C237833B96C
:1001A000044B13B10448AFF300800123237010BD4A
:1001B0009804002000000000B044040808B5034B78
:1001C0001BB103490348AFF3008008BD00000000E5
:1001D0009C040020B0440408154B002B08BF134BAF
:1001E0009D46A3F5803A00218B460F461348144ADA
:1001F000121A0FF078FD0F4B002B00D098470E4BD2
:10020000002B00D098470020002104000D000D486D
:10021000002802D00C48AFF300800FF0D5FC20007E
:10022000290002F055FB0FF02FFB00BF0000080073
:1002300000000220000000002F09000898040020A0
:10024000E827002000000000000000001FB5044661
:100250001022002168460FF046FD284B22681A60E4
:10026000A279012301930293122A44D8DFE802F015
:100270000C0B0A232527292B2D2F31333537393BFA
:100280003D3F4100022300931D4A1C48536823F45C
:1002900040036946536001F043F9184801F08CF8B7
:1002A0000A21164801F0E8F828BB144801F034F997
:1002B00080B204B010BD0323E5E70423E3E7052380
:1002C000E1E70623DFE70723DDE70823DBE7092370
:1002D000D9E70A23D7E70B23D5E70C23D3E70D2370
:1002E000D1E70E23CFE70F23CDE7064BCBE7112352
:1002F000C9E71223C7E70020DBE700BF5008002052
:1003000000230140120000104FF0FF33EF2973B5B6
:1003100004460D4603604CDC2B4928460CF092FE47
:100320002949206028460CF0A9FE274906462846A0
:100330000CF04CFE2368013304D1482223492448A1
:100340000CF032FE731C04D14922204921480CF0E4
:100350002BFE2168204BA580C6F304369942A67176
:100360000FD11E48036813BB01931D4B5A6C42F416
:1003700080725A645B6C03F480730193019B0123C8
:100380000360184800230122016043608360036119
:10039000836103624362C3628362C360C2610363B9
:1003A000436100F05FFF10B10F480CF09AFE02B0FD
:1003B00070BD0E4928460CF045FE0C4920602846C9
:1003C0000CF05CFE0646B5E7A407010848060108E4
:1003D000B2060108CA06010800200140B40400204A
:1003E0000038024050080020E306010858080108C0
:1003F00008B5FFF72BFF07EE900AB8EE677ADFED3E
:10040000037A67EE277A17EE900A08BD0108803953
:1004100030B50C4CA268A468B4F1006F13460CD13F
:10042000131F094C094A53F8045F42F8045FA242C3
:10043000F9D1044A4FF000539360103043F8201074
:1004400030BD00BF00ED00E094010020FCFFFF1F65
:100450007FB50023072855D8DFE800F00413202DCE
:100460003A54544700932A4B2A481A6B42F001022F
:100470001A631B6B03F001030093009B07B05DF848
:1004800004FB0193224B24481A6B42F002021A63C8
:100490001B6B03F002030193019BEFE702931C4BDC
:1004A0001E481A6B42F004021A631B6B03F004032C
:1004B0000293029BE2E70393154B19481A6B42F033
:1004C00008021A631B6B03F008030393039BD5E731
:1004D00004930F4B13481A6B42F010021A631B6B04
:1004E00003F010030493049BC8E70593084B0E48E0
:1004F0001A6B42F080021A631B6B03F080030593B2
:10050000059BBBE709480CF0ECFD0020B6E700BFF7
:10051000003802400000024000040240000802408F
:10052000000C024000100240001C0240FA060108C4
:10053000431C10B5044604D17422064906480CF049
:1005400033FD2046002100F067FA04F00F0401207B
:10055000A04010BD1B0701087207010870B50446D2
:100560004B1C0E46218216D0C1F30310FFF770FF1B
:1005700005463046FFF7DCFF238A074A656103F032
:100580000F03206052F82330A36105F110031835E2
:100590006360A560E56070BD800A0108B0F91000D5
:1005A00000F0D2BA10B58369446971B9216893FA31
:1005B000A3F2B2FA82F20320520000FA02F221EA18
:1005C000020293FAA3F3226010BD226893FAA3F10A
:1005D000B1FA81F193FAA3F30320490000FA01F183
:1005E000B3FA83F322EA01025B00012101FA03F36B
:1005F0001343236010BD000070B5134C23681A69C3
:10060000950707D5DA68900704D56FF002021A61E2
:100610000CF0C4FC23681A69510713D5DA68520735
:1006200010D56FF00402094E1A615D6A3368EB1A47
:10063000B3F57A7F06D300F005FE236805F57A72DC
:100640009A63356070BD00BFE8080020B804002040
:1006500030B589B001A903A801F08CFA01F05AFA6B
:1006600000230293244B01901A6C244C42F00802A0
:100670001A641A6C02F008020292029A1A6A42F094
:1006800008021A621A6A22F008021A62069AA3F590
:100690000B3323604FF0FF33E360194B4ABBB0FBD1
:1006A000F3F001380025606014482561A56065619C
:1006B00001F040FB13493220FFF7AAFE124B0F480E
:1006C0004FF480225A60294601F018FC04210B489F
:1006D00001F014FC23680D4A596A1160126802F592
:1006E0007A729A63DA68284642F00402DA6009B046
:1006F00030BD4000D3E700BF00380240E8080020CA
:1007000040420F00F905000800E100E0B8040020B5
:1007100000B589B00CF0F6FC052101A80CF03AFCFC
:10072000039B019A1A6096200CF041FD019B049AEC
:100730001B04136096200CF03AFDF1E770B50D46EE
:10074000A0B004460CF0DEFC2B4622468021684611
:100750000FF082FD051E03DC0CF000FD20B070BD23
:10076000094B1B6823B903220221084800F050FC02
:10077000064E00241DF804103046013400F01CFD24
:10078000A542F7D1E8E700BF000600209808002046
:100790000FB407B504A951F8040B0191FFF7CEFF80
:1007A00003B05DF804EB04B0704708B501F024FD18
:1007B000BDE8084000F02EBD08B5084B1B685BB9CA
:1007C00002210748032200F023FC4FF4165104488D
:1007D000BDE8084000F0C6BC08BD00BF0006002010
:1007E00098080020022810B5044601DC002010BD46
:1007F0000FF044F809230360033C094B53F824002D
:10080000002243F8242040B103681B699847041E66
:10081000ECDA0FF033F8644204604FF0FF3010BDA3
:10082000BC040020F8B505460E4614460FF026F825
:100830000923022D03600FDC124B1B680BB9FFF775
:10084000BBFF35463719104EBD4215D015F8011BB8
:10085000304600F0B1FCF7E7033D0C4B53F82500A0
:1008600060B103682246DB6831469847041E03DA0C
:100870000FF004F8634203602046F8BD4FF0FF34E8
:10088000FAE700BF0006002098080020BC04002002
:1008900070B504460D4616460EF0F0FF0923022CF3
:1008A00003600BDC0F4B1B680BB9FFF785FF0E488D
:1008B00000F066FC01242870204670BD033C0B4B01
:1008C00053F8240058B1036832469B68294698477C
:1008D000041EF1DA0EF0D2FF63420360ECE74FF042
:1008E000FF34E9E70006002098080020BC0400203F
:1008F00070B504460D4616460EF0C0FF0923022CC3
:1009000003600BDD033C084B53F8240040B103683F
:1009100032462946DB69BDE870401847002070BDAB
:100920004FF0FF3070BD00BFBC040020704708B519
:10093000FFF73BFFFFF7FAFF08BD00000C4A136802
:1009400010B51844EFF30881884205D3094B0C22F7
:100950001A604FF0FF3010BD07490C6824B10749F9
:10096000096821448842F1D21060184610BD00BFCA
:1009700098010020E4270020BC050020C0050020CD
:10098000074C08B52368054698680FF041F82368BE
:10099000D8680FF03DF80DB1FFF7BAFEFEE700BFD3
:1009A0002C0400207047704708B5FFF7FBFF08BD17
:1009B00008B5FFF7F8FF08BD10B50FF029F9044698
:1009C00010B902480CF08DFB204610BD85070108C8
:1009D00008B10FF025B97047FFF7FABF30B5C3680B
:1009E00091FAA1F4B4FA84F491FAA1F10325B1FAD1
:1009F00081F1640005FA04F4490023EA040302FAD1
:100A000001F11943C16030BD012A02D0022A18BF8A
:100A10000022FFF7E3BF00002DE9F0410E46411C24
:100A2000044604D13E22444944480CF0BDFA04F087
:100A30000F08434BC4F3031053F82850FFF708FD89
:100A400006F007070446836895FAA5F1B1FA81F12B
:100A500095FAA5F20320490000FA01F1B2FA82F2F8
:100A600023EA01035200022101FA02F21343A360B8
:100A700087425AD8DFE807F05E1D021DB8F1070F64
:100A8000C6F303203BD9626A2B0A93FAA3F1B1FAA9
:100A900081F193FAA3F34FF00F0EB3FA83F38900B9
:100AA0000EFA01F19B0022EA010200FA03F313435C
:100AB00063623B46226895FAA5F0B0FA80F095FA99
:100AC000A5F14FF0030EB1FA81F140000EFA00F0EB
:100AD000490022EA00028B40013F1343012F2360AB
:100AE00005D8636832074CBF2B43AB436360C6F342
:100AF000011229462046BDE8F041FFF785BF226A72
:100B000095FAA5F3B3FA83F395FAA5F14FF00F0E1A
:100B1000B1FA81F19B000EFA03F3890022EA030285
:100B200000FA01F313432362C3E764220249054834
:100B30000CF03AFA0023BDE7C00A01087207010869
:100B4000800A0108150B0108431C70B506460D46C6
:100B500004D185221B491C480CF026FA06F00F022E
:100B60001A4BC6F3031053F82240FFF771FC04FB45
:100B700004F2016802EB42030B40B3FBF2F3013BCA
:100B8000012B05D8EB1E022B436809D82343436091
:100B9000032D08D101222146BDE87040FFF734BF84
:100BA00023EA04034360012DF4D0052D01D0022D6A
:100BB00001D10222EFE721460022BDE87040FFF795
:100BC0000DBF00BFC00A010872070108800A0108B2
:100BD00030B507EE101A284B02681A60B5EEC07ADD
:100BE000F1EE10FA89B0054628D4F7EE007AB4EE9B
:100BF000677AF1EE10FAC8BFB0EE677AD5ED037AE6
:100C0000F8EE677A602267EE877A0192FCEEE77A67
:100C1000AA68C5ED047A17EE903AB3FBF2F302939B
:100C20000023039305930693049307932B7D013BC5
:100C3000032B16D8DFE803F01B0517199FED0F7A79
:100C4000DCE70424224601A90B4801F0D3F810B1D7
:100C50000B480CF046FA6B7D074821464BB101F07A
:100C60005BF909B030BD0824ECE70C24EAE7002466
:100C7000E8E701F02DF9F4E7C405002000000000CA
:100C80009D0B0108C368ABB107EE903AD0ED046A42
:100C9000B8EE677AF8EE666AC6EE877AB7EE007A43
:100CA000F4EE477AF1EE10FAC8BFF0EE477A17EE8D
:100CB000900A7047DFED017AF9E700BF00000000FD
:100CC0002DE9F0474A4C0268226086B000230E46A8
:100CD00000930546FFF7D6FF116A41F2111319423E
:100CE000074608D1116A40F24443194202BF136813
:100CF00023F001031360694601A800F03BFF3D4863
:100D00002968002380465FFA83F9013350F83920BF
:100D10008A42F8D111B938480CF0E3F908EBC90858
:100D200098F8043053BB00F0F5FE00900498009949
:100D30000123AB60314B30BBB1FBF3F3013B63608C
:100D400006F1FF3C2D4B6268B1FBF3FE4FEA410810
:100D50000021B8FBF3F8C4F80CC063468A464FF68E
:100D6000FE79B3F5803F12D2B2F5803F0FD2BAF1CF
:100D7000000F00D06260F1B1E3601CE000F0E2FE21
:100D800000900598D3E74A00B2FBF3F3D6E7AB68CF
:100D90005B00AB6030BB0EFB03F2BCFBF3F34B45D7
:100DA00002F1FF3221D8B2F5803F1ED314486260B1
:100DB000E3600CF096F900230D482361A36000F076
:100DC000D3FF10B10E480CF08CF9EE60394628467E
:100DD000FFF7FEFE2268136843F00103136006B0BC
:100DE000BDE8F08708FB03F2D7E701218A46B8E7A0
:100DF000C4050020B40B0108880B010840420F0015
:100E00009D0B010870B50E46044688B05449304623
:100E10000CF018F92060013004D12E2251495248BB
:100E20000CF0C2F84E4930460CF028F9431C054638
:100E300004D132224B494D480CF0B6F8C5F30433C7
:100E40004B4A23752368C5F34045934265754FF0BF
:100E500000021AD10092474A516C41F001015164DD
:100E6000526C02F001020092009A434A934229D147
:100E7000002305933F4B5A6C42F480325A645B6CFA
:100E800003F480330593059B58E0B3F1804F0BD1F9
:100E90000192384A116C41F001011164126C02F0A8
:100EA00001020192019AE0E734498B421AD1029281
:100EB000304A116C41F002011164126C02F002021E
:100EC0000292029A2E4A93421AD100230693294B8A
:100ED0005A6C42F400325A645B6C03F4003306939C
:100EE000069B2BE027498B421AD10392214A116CB1
:100EF00041F004011164126C02F004020392039A9F
:100F0000214A93421AD1002307931A4B5A6C42F498
:100F100080225A645B6C03F480230793079B0DE0E7
:100F20001A498B42A1D1134B04921A6C42F0080269
:100F30001A641B6C03F008030493049B08493046B1
:100F40000CF044F80023E36023610123A680A36032
:100F500044F620612046FFF7B3FE08B070BD00BF25
:100F600088080108170B0108700B0108CA06010860
:100F700000000140003802400040014000040040F1
:100F8000004401400008004000480140000C0040BF
:100F900007EE101ADFED047A67EE277AFDEEE77AA6
:100FA00017EE901AFFF78CBE002474494268164968
:100FB000920110B58B1804688C5082685A60C26820
:100FC0009A600269DA6042691A61026A9A610022D3
:100FD000DA61DA849A84DA859A85B0F91A200132C6
:100FE0000AD108225A61184601F0C3F858B10748DF
:100FF000BDE810400CF075B8B0F9182001320CBFF4
:1010000004220C22EEE710BD04060020FC0B0108B0
:10101000F0B50E4685B004464949304615460CF0F9
:1010200011F84849074628460CF00CF801463846A6
:101030000BF0EAFF2060013004D1662242494348A8
:101040000BF0B2FF2368424A93421ED002F5806241
:1010500093425ED0A2F5504293422BD13D4B1A6A87
:1010600042F400321A621A6A22F400321A62002232
:1010700002921A6C42F400321A641B6C03F40033BF
:101080000293029B0123636014E0324B5A6A42F0E0
:1010900010025A625A6A002122F010025A6201912B
:1010A0005A6C42F010025A645B6C616003F01003EA
:1010B0000193019B224930460BF088FF21492846C5
:1010C0000BF084FF721C03D001213046FFF73CFD7A
:1010D0006B1C03D001212846FFF736FD4FF4165351
:1010E000A3600023E3602361636123622683658339
:1010F0002046FFF75BFF2268174B9A4207D1174B38
:10110000174801221A6021464C220EF0E1FD05B07D
:10111000F0BD104B5A6A42F020025A625A6A22F01D
:1011200020025A62002203925A6C42F020025A6452
:101130005B6C03F020030393039B0523A3E700BF2D
:101140002C0A0108D8090108140C01087C0C0108BC
:10115000001001400038024000440040000600201A
:10116000980800208160FFF721BF00004368034A10
:101170009B01D3581868C0F3401070470406002044
:10118000416810B504462046FFF7F0FF0028FAD06A
:101190008901034B5B585868C0F3080010BD00BFBD
:1011A000040600204368034A9B01D3581868C0F323
:1011B000C01070470406002038B54468054628462C
:1011C000FFF7F0FF0028FAD0A401034B1B59C1F32D
:1011D0000801596038BD00BF04060020DFF820D0A8
:1011E000002103E0074B5B58435004310648074B8E
:1011F00042189A42F6D301F0C1F8FEF7EDFF7047AE
:1012000000000220BC44040898010020980400203B
:10121000FEE7000008B50A4B1A6842F400721A6033
:101220001A6842F480621A601A6842F480721A6086
:101230000F20FFF70DFA00F00BFA002008BD00BFE9
:10124000003C0240024A136801331360704700BF3C
:10125000E4080020014B1868704700BFE408002034
:101260007047000010B50446002800F09F80036C12
:1012700023B9436480F83C30FFF7F2FF236CDB06B0
:1012800000F19280236C23F4885323F0020343F08F
:1012900002032364464B5A6822F440325A605A686B
:1012A00061680A435A60236821695A6822F480728F
:1012B0005A605A6842EA01225A605A68A16822F0CC
:1012C00040725A605A680A435A609A68E16822F488
:1012D00000629A609A680A439A603649A26A8A4212
:1012E00056D0996821F07061996099680A439A60B4
:1012F0009A68E16A22F040529A609A680A439A60BA
:101300009A68A16922F002029A609A6842EA410250
:101310009A60226A002A43D05A6842F400625A60F6
:101320005A6822F460425A604FF4604292FAA2F284
:10133000B2FA82F1626A5868013A8A4002435A60FE
:10134000DA6AE16922F47002DA62DA6A013942EAA1
:101350000152DA629A68216B22F400729A609A68EC
:1013600042EA41229A609A68616922F480629A6036
:101370009A68002042EA81229A606064236C23F01C
:10138000030343F001032364002384F83C3010BDC1
:101390009A6822F070629A609A6822F04052AEE732
:1013A0005A6822F40062CAE70120EDE7012010BD6F
:1013B000002301400100000F82B00023019390F848
:1013C0003C30012B4ED0012380F83C3003689A68F2
:1013D000D10705D59A68D20714D4002002B070470F
:1013E0009A68214942F001029A60204A1268B2FBD1
:1013F000F1F202EB42020192019A002AEAD0019A2C
:10140000013AF8E7026C22F4E06222F0010242F4B1
:10141000807202645A68510541BF026C22F4405246
:1014200042F480520264026C12F480521CBF426C7F
:1014300022F006024264002280F83C206FF0220273
:101440001A600B4A5268D20608D1986810F04050D2
:10145000C3D19A6842F080429A60BFE7054A93423E
:10146000BBD1F2E70220B9E740420F009C01002007
:10147000002301400020014003689A6870B55605BA
:1014800004460D460BD59B68D80508D5236C43F060
:1014900020032364002384F83C30012070BDFFF753
:1014A000D9FE064623681A6892070CD56FF012021F
:1014B0001A60226C42F4007222649A6812F0405F53
:1014C00013D0002070BD691CEDD045B9236C43F0EA
:1014D00004032364002384F83C30032070BDFFF72D
:1014E000B9FE801B8542DDD2F0E7A269002AE8D16F
:1014F000DA6A12F4700F02D09B685B05E1D4236CAA
:1015000023F480732364206C10F48050D9D1236CB1
:1015100043F00103236470BD0368D86C704700007A
:10152000F7B50023019390F83C30012B6AD00D6889
:1015300004688A680123092D80F83C30AEB22AD9AC
:1015400006EB4603E7681E3B4FF0070E0EFA03FE5C
:1015500027EA0E07E760E76802FA03F33B43E3601C
:101560004A68062A4FEA820325D81344676B591F3D
:101570001F238B4027EA03036363626B06FA01F1C2
:10158000114361632D4B9C4234D0002380F83C30E2
:10159000184603B0F0BD276905EB45034FF0070E71
:1015A0000EFA03FE27EA0E072761276902FA03F302
:1015B0003B432361D4E70C2A0ED81344216BA3F1DB
:1015C00023021F23934021EA03032363236B06FABC
:1015D00002F21A432263D5E71344E16A413B1F221A
:1015E0009A4021EA0202E262E26A06FA03F111433A
:1015F000E162C7E7122D07D1114A536843F4800313
:101600005360C2E70220C4E70E4B9D4201D0112D6A
:10161000BBD10B494A689D4242F400024A60B4D1F2
:10162000094B0A4A1B68B3FBF2F20A2353430193A6
:10163000019B002BA9D0019B013BF8E70020014052
:1016400000230140120000109C01002040420F00C6
:10165000704700000368F7B5DD07044638D42368F7
:10166000980771D423681E0700F1BD8023685D07C9
:1016700028D500230193A84BA84D1A6C42F0805244
:101680001A641B6C03F080530193019B2B6843F495
:1016900080732B60FFF7DEFD06462B68DA0540F10C
:1016A000C4809F4B227A1A70A368002B00F0CB8075
:1016B000FFF7D0FD984D064641F288372B6F9B0708
:1016C00040F1BA80A269002A40F0CD80002015E0E8
:1016D000914B9A6802F00C02042A07D09A6802F033
:1016E0000C02082A0CD15B68590209D58A4B1B6889
:1016F0009A03B4D56368002BB1D1012003B0F0BDCB
:10170000884B22791A7063687BB1FFF7A3FD824D85
:10171000064641F288372B689B03A0D4FFF79AFD59
:10172000801BB842F7D90320E8E7FFF793FD7A4D15
:10173000064641F288372B68980390D5FFF78AFD5B
:10174000801BB842F7D9EEE7734B9A6812F00C0F82
:1017500007D09A6802F00C02082A16D15B68590279
:1017600013D46D4B1A68920702D5E268012AC4D1DE
:101770001868F82292FAA2F2B2FA82F122698A403B
:1017800020F0F8010A431A606CE7E268664BDAB1B0
:1017900001221A60FFF75EFD5F4D06462B689B072E
:1017A0000CD52968F82393FAA3F3B3FA83F22369DB
:1017B000934021F0F80213432B6053E7FFF74AFDF3
:1017C000801B0228EAD9AEE71A60FFF743FD524DAD
:1017D00006462B689F077FF545AFFFF73BFD801B53
:1017E0000228F6D99FE76269504B7AB101221A604C
:1017F000FFF730FD484D06466B6F98073FF536AF53
:10180000FFF728FD801B0228F6D98CE71A60FFF746
:1018100021FD414D06466B6F99077FF527AFFFF716
:1018200019FD801B0228F6D97DE7FFF713FD801B09
:1018300002287FF632AF76E7FFF70CFD801BB84237
:101840007FF63CAF6FE7FFF705FD334D064641F2EB
:1018500088372B6F98077FF535AFFFF7FBFC801BB0
:10186000B842F6D95FE72C4DAB6803F00C03082BA8
:101870003FF443AF2E4E0023022A33603ED1FFF7E0
:10188000E9FC07462B68990132D447F6C07797FAEE
:10189000A7F74FF44032B7FA87F792FAA2F24FF067
:1018A0007061B2FA82F091FAA1F1226AE3691343FE
:1018B000626A02FA07F7A26A5208013A82403B4381
:1018C0001343E26A144CB1FA81F102FA01F10B43BD
:1018D0006B6001233360FFF7BDFC054623689A0166
:1018E0003FF5F4AEFFF7B6FC401B0228F6D91AE725
:1018F000FFF7B0FCC01B0228C4D914E7FFF7AAFC0D
:1019000004462B689B017FF5E1AEFFF7A3FC001BAB
:101910000228F6D907E700BF0038024000700040F7
:10192000703802400238024000004742800E4742B1
:1019300060004742194A936803F00C03042B10B56A
:1019400003D0082B03D0164810BD164810BD5168AF
:10195000536801F03F0113F4800F47F6C0745368D9
:1019600094FAA4F0B0FA80F003EA040323FA00F337
:1019700014BF0C480A48B0FBF1F05843074B4FF432
:1019800040325B6892FAA2F2B2FA82F203F4403378
:10199000D34001335B00B0FBF3F010BD00380240D0
:1019A0000024F40000127A00564B1A6802F00F026D
:1019B0008A422DE9F04105460E4630D32A68940745
:1019C00037D4D0073DD44F4B1A6802F00F0296422D
:1019D000C0F088802A68510700F18C80130707D572
:1019E000494A2969936823F4604343EAC103936039
:1019F000FFF7A0FF444BF0229B6892FAA2F2B2FAE2
:101A000082F203F0F003D340404AD35CD840404B0D
:101A100018600F20FEF71CFE0020BDE8F081CAB25E
:101A20001A701B6803F00F039942C7D00120BDE86C
:101A3000F0813549A8688B6823F0F00303438B607D
:101A4000BFE76A68304B012A1ED11B6813F4003FC0
:101A5000ECD02D4CA36823F003031343A360FFF7DE
:101A6000F9FB6B68012B074641F2883816D1A36851
:101A700003F00C03042BA6D0FFF7ECFBC01B404582
:101A8000F5D90320BDE8F081911E01291B6802D819
:101A900013F0007FDCE713F0020FD9E7022B0AD125
:101AA000A36803F00C03082B8DD0FFF7D3FBC01BFA
:101AB0004045F5D9E5E7032B0FD1A36803F00C03EC
:101AC0000C2B80D0FFF7C6FBC01B4045F5D9D8E7EB
:101AD000FFF7C0FBC01B4045D3D8A36813F00C0F21
:101AE000F6D170E7F2B21A701B6803F00F039E4242
:101AF0009CD16FE70449E8688B6823F4E053034303
:101B00008B606BE7003C024000380240980C0108F3
:101B10009C010020084B4FF4E0529B6892FAA2F21D
:101B2000B2FA82F203F4E053D340044AD35C044A8D
:101B30001068D840704700BF00380240980C010878
:101B40009C010020084B4FF460429B6892FAA2F27D
:101B5000B2FA82F203F46043D340044AD35C044AED
:101B60001068D840704700BF00380240980C010848
:101B70009C0100200F2303600B4B9A6802F00302C4
:101B800042609A6802F0F00282609A6802F4E052C1
:101B9000C2609B68DB0803F4E0530361034B1B68DE
:101BA00003F00F030B60704700380240003C024016
:101BB000036A23F001030362036A70B54468826913
:101BC0000D6822F073022A438D6823F002032B4331
:101BD0000A4DA8420BD1CD688E6923F008032B4330
:101BE0004D6924F44074354323F004032C434460CE
:101BF00082614A684263036270BD00BF0000014019
:101C0000036A23F480730362036A70B54468C2698F
:101C10000D6822F073022A438D6823F4007343EAAF
:101C200005230B4DA8420DD1CD688E6923F40063C6
:101C300043EA05234D6924F44054354323F480637B
:101C400044EA05144460C2614A68C263036270BD1D
:101C500000000140036A23F480530362036A30B535
:101C60004468C2690D6822F4E64242EA05228D68A2
:101C700023F4005343EA0533064DA84202BF4D69E1
:101C800024F4804444EA85144460C2614A680264D2
:101C9000036230BD0000014070477047224A03686C
:101CA00090420ED0B0F1804F0BD0A2F57C42904212
:101CB00007D002F58062904203D002F58062904224
:101CC00019D14A6823F070031343174A904204D194
:101CD000CA6823F44073134318E0B0F1804FF7D083
:101CE000124A9042F4D002F580629042F0D002F5A0
:101CF00080629042ECD00E4A9042E9D002F58062B8
:101D00009042E5D002F580629042E1D003608B689A
:101D1000C3620B688362044B984204BF0B69036380
:101D200001234361704700BF0000014000040040F0
:101D30000040014010B50446A0B190F8393003F0DE
:101D4000FF021BB980F83820FFF7A6FF022384F8B2
:101D500039302068211DFFF7A1FF012384F83930B5
:101D6000002010BD012010BD10B50446A0B190F8B0
:101D7000393003F0FF021BB980F83820FFF78DFFE0
:101D8000022384F839302068211DFFF787FF0123E3
:101D900084F83930002010BD012010BD036A23F003
:101DA00010030362036A70B5446882690D6822F407
:101DB000E64242EA05228D6823F0200343EA051338
:101DC0000B4DA8420DD1CD688E6923F0800343EA04
:101DD00005134D6924F44064354323F0400344EA7D
:101DE0008504446082614A688263036270BD00BFFB
:101DF0000000014038B590F83830012B04464FF010
:101E0000020025D0012384F8383084F839000C2AE8
:101E100018D8DFE802F0071717171E1717172F1724
:101E2000171740002068FFF7C3FE236809699A6905
:101E300042F008029A619A6922F004029A619A6952
:101E40000A439A610123002084F8393084F838006D
:101E500038BD2068FFF7A2FF236809699A6942F438
:101E600000629A619A6922F480629A619A6942EAF0
:101E70000122E6E72068FFF7C3FE23680969DA69F3
:101E800042F00802DA61DA6922F00402DA61DA6902
:101E90000A43DA61D6E72068FFF7DCFE23680969A8
:101EA000DA6942F40062DA61DA6922F48062DA61A6
:101EB000DA6942EA0122ECE7036A10B501248C409A
:101EC00023EA04030362036A8A401A43026210BDD4
:101ED00010B5044601220068FFF7EEFF2368064AAA
:101EE000934202BF5A6C42F400425A641A6842F0AC
:101EF00001021A60002010BD00000140FFF7E8BF9A
:101F0000036A10B504248C4023EA04030362036AC5
:101F10008A401A43026210BD10B5044604220068CC
:101F2000FFF7EEFF23685A6C42F400425A641A68C5
:101F300042F001021A60002010BD00002DE9F047B8
:101F40000668C2683369C16923F44053134333619F
:101F5000044683680069F2680343606922F416420C
:101F6000034322F00C020B431343F3607369A2692D
:101F700023F440731343B1F5004F73617A4B7CD166
:101F80009E4203D003F580639E4244D1FFF7DAFD01
:101F9000192505FB00F360684FF064094000B3FBAE
:101FA000F0F3B3FBF9F34FEA0318FFF7CBFD6368D7
:101FB00068435B00B0FBF3F7FFF7C4FD6368684359
:101FC0005B00B0FBF3F3B3FBF9F309FB1373DB0026
:101FD0003233B3FBF9F35B0003F4F877FFF7B2FD9C
:101FE000626868435200B0FBF2FAFFF7ABFD63682A
:101FF00068435B00B0FBF3F3B3FBF9F309FB13A3F6
:10200000DB003233B3FBF9F303F0070343443B44F3
:10201000B360BDE8F087FFF77DFD192505FB00F3F0
:1020200060684FF064094000B3FBF0F3B3FBF9F3D1
:102030004FEA0318FFF76EFD636868435B00B0FB6F
:10204000F3F7FFF767FD636868435B00B0FBF3F3EA
:10205000B3FBF9F309FB1373DB003233B3FBF9F382
:102060005B0003F4F877FFF755FD626868435200A0
:10207000B0FBF2FAFFF74EFDB9E79E4202D03B4BB0
:102080009E4240D1FFF75EFD676819254FF0640955
:1020900005FB00F3BF00B3FBF7F3B3FBF9F31F013C
:1020A000FFF750FD636868439B00B0FBF3F8FFF750
:1020B00049FD636868439B00B0FBF3F3B3FBF9F39E
:1020C00009FB13831B013233B3FBF9F303F0F00870
:1020D000FFF738FD626868439200B0FBF2FAFFF741
:1020E00031FD636868439B00B0FBF3F3B3FBF9F386
:1020F00009FB13A31B013233B3FBF9F303F00F0306
:1021000043EA080383E7FFF705FD676819254FF0E9
:10211000640905FB00F3BF00B3FBF7F3B3FBF9F36E
:102120001F01FFF7F7FC636868439B00B0FBF3F8FF
:10213000FFF7F0FC636868439B00B0FBF3F3B3FB6D
:10214000F9F309FB13831B013233B3FBF9F303F0FB
:10215000F008FFF7DFFC626868439200B0FBF2FA18
:10216000FFF7D8FCBDE700BF00100140001401409C
:10217000704710B5044640B390F8393003F0FF02C1
:102180001BB980F83820FFF7F3FF2268242384F876
:102190003930D36823F40053D3602046FFF7CEFED6
:1021A00023681A6922F490421A615A6922F02A02BD
:1021B0005A61DA6842F40052DA6000202023E063BA
:1021C00084F8393084F83A3010BD012010BD7FB555
:1021D0000F230193022302934FF480520023032123
:1021E00001A8039304920593FFF7DEFBB0FA80F099
:1021F000400907B05DF804FB174A1849936803F0DB
:102200000C03042B10B50DD0082B0DD0144B0B6014
:10221000114B144A9B68C3F30313D25C0B68D34081
:102220000B6010BD104BF2E75468506852686302AF
:10223000C2F3881200F03F004CBF0B4B084BB3FBBE
:10224000F0F35343044A5268C2F301420132520090
:10225000B3FBF2F3DBE700BF003802409C01002033
:102260000024F400A80C010800127A0000B58FB019
:102270001B4B002100911A6C42F080521A641B6CB7
:10228000184A03F080530093009B0191136823F4D4
:10229000404343F400431360136803F44043019345
:1022A000019B01230293B0B90393022308934FF4D7
:1022B0008003099304230A930C930823C0220DEB97
:1022C00003000B920D93FFF7C5F930B9FFF77FFFBD
:1022D0000FB05DF804FB0523E6E70020F8E700BF38
:1022E000003802400070004010B58EB000241A4B38
:1022F00000941A6C42F080521A641B6C174A03F067
:1023000080530093009B0194136823F4404343F4EB
:10231000004313601368039403F440430193019B4B
:1023200009940323029301230593102306930223A8
:10233000C022089308230B920DEB030004220A939A
:102340000C920D93FFF786F918B9FFF740FF0EB016
:1023500010BD2046FBE700BF00380240007000407F
:1023600008B50120FFF782FF30B9FFF77FFF18B9EA
:10237000FFF7BAFF00B9FEE708BD0000174AD2F820
:10238000883010B543F47003154CC2F888302368C8
:10239000002143F001032360A160236823F08473CC
:1023A00023F4803323600F4B6360236823F480237E
:1023B00023604FF00063E16093600B4B0B4A1A609F
:1023C000FEF728FFFFF7CCFF236A43F008032362E0
:1023D000236A23F00803236210BD00BF00ED00E074
:1023E00000380240103000249C0100200024F4003A
:1023F000054B186830B901221A60044B044A1A6070
:10240000FEF726B9704700BF04080020E808002046
:10241000000C004008B5044B1B680BB9FFF7E8FF40
:10242000024B586A08BD00BF04080020000C0040A1
:10243000044B054A13605863DA6842F00202DA601E
:10244000704700BF000C0040E8080020034B044A1E
:102450001360DA6822F00202DA607047000C004074
:10246000E8080020034A044B13606FF002021A616F
:10247000704700BFE8080020000C0040704700BF14
:1024800010B50446FEF7A8FA204610BD074B1A689F
:1024900042B104339A4204D05922054905480AF052
:1024A00083BD70471A1D1A60704700BF30080020B6
:1024B000D00C0108300D0108074B1A6842B10433F3
:1024C0009A4204D05922054905480AF06DBD70476B
:1024D0001A1D1A60704700BF30080020D00C010898
:1024E000300D01082DE9F047460034181F4FA400B5
:1024F0003B191A7A2AB1032A0CBF18460020BDE8FE
:10250000F087DFF8788005460C20FEF755FAD8F8FA
:102510000030174A37F904A00260814608F104042C
:102520000BB3A34204D05922124913480AF03CFDD0
:10253000514609F10400FDF7E7FED8F800307BB101
:10254000A34204D059220B490B480AF02DFD701903
:1025500007EB80000323C0F804900372BDE8F08706
:10256000C8F80040F3E7C8F80040E1E7A001002008
:10257000C00C0108D00C0108300D01083008002003
:10258000704700BF70B50D4650B344681D4A2368BC
:102590009B68934229D11C4B1A6862B304339A4258
:1025A00004D0592219491A480AF0FEFC201DFDF7F3
:1025B0001FFF2368174ADB68934206461ED1124B61
:1025C0001A68AAB104339A4204D059220F4910481C
:1025D0000AF0EAFC30460CF0D1FDC5E9000170BDFF
:1025E00000200021C5E9000170BD20469847DDE7C5
:1025F0001A1D1A60EEE71A1D1A60D7E720469847A1
:10260000E8E700BF8D24000830080020D00C010846
:10261000300D0108B9240008704700BF2DE9F843C8
:1026200000EB4000204E850074199946237A2BB1A7
:10263000042B0CBF20460020BDE8F88318209046EC
:10264000FEF7BAF9755F07460AF05CFD2946384681
:10265000FEF7D8FB0AF082FD67600AF053FD4246A0
:102660004B46002011490CF00BFF0DF0B7F8014666
:102670003846FEF78DFC0AF071FD65680AF042FDF0
:1026800000220B4BDDE908010CF0FAFE0DF0A6F874
:1026900001462846FEF79CFA0AF060FD04232372E7
:1026A0002046BDE8F88300BFA00100200000F03FF5
:1026B00000005940704700BF28B170B51D46037A2D
:1026C000042B01D070BD7047144646680AF01AFD0D
:1026D0000022074B204629460CF0D2FE0DF07EF872
:1026E00001463046FEF774FABDE870400AF036BD88
:1026F000000059402DE9F0474FEA400A0AEB000577
:10270000DFF89090AD0009EB0508044698F80870D2
:102710000E4647B999B1012926D00AEB040009EB0E
:102720008000BDE8F087012F04D0022F04D10129D9
:10273000F3D001E00029F0D00020BDE8F0871C2094
:10274000FEF73AF939F905108661C0E90066C0E97B
:102750000266C0E9046607460AF009FC0123C8F8CE
:10276000047088F80830D8E71C20FEF725F939F9FD
:1027700005108761C0E90077C0E90277C0E90477F6
:1027800006460AF007FC0223C8F8046088F80830FF
:10279000C3E700BFA001002038B14368D3E900328D
:1027A00012681A4214BF01200020704728B1426805
:1027B000136819B9D2681B041360704792681360DC
:1027C000704700BF08B5BFF34F8FBFF36F8F094A43
:1027D0000949136809688B4206D30123136072B656
:1027E00000F05EF862B608BD591C1160002BF6D0EF
:1027F00008BD00BF2809002024090020224BD3ED8A
:10280000007A07EE100AF8EE677A10B467EE877A5E
:10281000FCEEE77A17EE903AB3F1807F18D3F8EE2A
:10282000676A9FED1A7A1A49C6EE877AFCEEE77A54
:1028300017EE902A0132B3FBF2F3013BB3F1807F34
:102840000A6016D3134B5DF8044B00221A607047E0
:102850000F49013B0022B3F1807F0A60F2D20E499A
:102860000E484B60F024072380F823408A600B60F9
:10287000E8E7094A09485360F0240021072380F85B
:10288000234091601360DDE79C010020FFFF7F4B38
:10289000240900202809002010E000E000ED00E0FD
:1028A00010B5094C23785A1C227023B1074A2370B3
:1028B0000123136010BD62B600F0E2F872B623780F
:1028C000013B237010BD00BF0C0800200808002049
:1028D00010B582B001238DF80730FEF79BFCFFF79F
:1028E0008BFC134B1C680023236009F0D9FF1148AF
:1028F000FFF784FF2368B3FA83F35B098DF8073091
:1029000062B69DF807307BB121680B4A003118BFD1
:10291000012111701378B3FA83F35B098DF8073046
:102920009DF80730002BF4D1002002B010BD00BF8D
:10293000440D0108ACC527370D0800201EF0100F0C
:1029400008BFB0EE400A1EF0040F0CBFEFF3088082
:10295000EFF30980816911F8020C10B101280DD044
:102960000BE01EF0100F0CBF1AB008B003BC80F3D0
:10297000118803BC80F300880847FEE74EF6145127
:10298000CEF200010A6842F001020A607047F4E7E3
:1029900000BF00BF000000002DE9704314461D4633
:1029A0000AF00AFC344EC6E90001204629460AF026
:1029B00003FCD6E9008904460D4602460B46404614
:1029C00049460CF0A5FE90BB22462B4640464946A0
:1029D0000CF0BCFE88B9204629460AF049F940B9F6
:1029E00023A3D3E90023D6E900010CF01FFC044621
:1029F0000D4620462946BDE8708342464B46204698
:102A000029460CF03DFD02460B460CF00FFC00225F
:102A10001A4B0CF055FA0AF0E9FED6E900230CF047
:102A200005FC04460D4620462946BDE87083224633
:102A30002B46404649460CF023FD02460B46C6E9AC
:102A400000230CF0F3FB00220C4B0CF039FA0AF0D7
:102A5000CDFE02460B46204629460CF0E7FB044615
:102A60000D4620462946BDE8708300BFAFF30080C5
:102A7000CD3B7F669EA0F63F482600200000F03F39
:102A80002DE9F04FB24BB34EDB882DED028BADF24A
:102A9000DC5D1BB9D6E91823C6E90023AE49AF4D6A
:102AA00000240F4622462B46D1E910010CF026FEE9
:102AB00008B9C7E91045A84DE86BFFF76DFE41F670
:102AC000AC52AB5C5F0700F1A883022443F004031F
:102AD00064F30103A24CAB5400200021C4E90001BF
:102AE0000834A04900220023D1E900010CF006FEC1
:102AF000002840F0148241F6B057D6E90001964E06
:102B0000002500220023F5530CF0F8FD002840F0CA
:102B1000AB83CDF84C05CDF84805012341F6B05202
:102B20008D498B528A4BDA88002A00F01482D4E94E
:102B30000001002200230CF0E1FD4FF0010100B97B
:102B40000146854B01F00101D3F8840000260027DF
:102B5000FFF72CFE32463B46D4E900010CF0F6FDAF
:102B6000002804F07E827E4C32463B46D4E90001C8
:102B70000CF0ECFD002804F0A0827B4B0022C4E99D
:102B8000042304F11001794BCDF854150022724949
:102B9000D1F89400FFF790FD6D4BDB88002B04F01B
:102BA000698241F6B3536C4AD35C002B40F09C839E
:102BB0006F4A70492C92CDF8501502F5A4612B9103
:102BC00002F5A561483A2D9100926B4CDDF8502535
:102BD000D4E90067003318BF01231370304652A3B5
:102BE000D3E9002339460CF021FB594BDB888046A2
:102BF0008946002B40F04C83D4E904ABD4E90601AC
:102C0000A4F1400532463B4644E90EAB44E90C01D1
:102C1000C5E900AB0CF052F92C9C45A3D3E9002385
:102C2000C4E900010CF002FB42464B460CF048F9A7
:102C30000F462B99484C06463FA3D3E90023C1E930
:102C40000067504659460CF0F1FA3BA3D3E9002344
:102C5000C4E9F601304639460CF0E8FAC4E9F80157
:102C60003D4B3E4F00261C46D3E9040132463B460D
:102C70000CF044FD08B9C4E90467374CE068FFF77D
:102C8000CBFC07223D49E068FFF77CFC2B9BD4E995
:102C9000FA01D3E900230CF0C9FAD5E9002306466E
:102CA0000F46D4E9FC010CF0C1FA02460B4630464F
:102CB00039460CF005F90F462D9921A3D3E90023DD
:102CC0000646D1E900010CF0B1FA00222C4B0CF0C1
:102CD000ADFA00222B4B0CF0F3F8009BD3E9002354
:102CE0000CF0A4FA0B460246394630460CF0E8F8E0
:102CF000174BDD88DDF85435C3E90001002D40F0A5
:102D00008D8011A7D7E90067D4E90A0132463B4616
:102D10000CF0F4FC08B9C4E90A670F4C1A4D606A5C
:102D2000FFF77AFC32E000BFFFFFFFFFFF6908C139
:102D3000FFFFFFFFFF690841555555555555B53FF4
:102D40006666666666664A3FFCA9F1D24D62603FE0
:102D50003009002008200020380900200000F0BFC2
:102D6000482000204020002000002840000059405A
:102D700080200020B827002060200020A825002007
:102D80000000E03F0000F03F90200020294607228D
:102D9000606AFFF7F7FB57A3D3E90023D5E90001E9
:102DA0000CF044FA00224C4B0CF040FA00224B4B42
:102DB0000CF086F841F6885CD4E9F86754F80C20EA
:102DC000C5E90001D4E9F601531C312B04EBC20222
:102DD00045E90A6744F80C30C2E9FE0106DD323BE2
:102DE000312BFCDC41F688523D498B503C4841F682
:102DF0008C51435803F1B102013300EBC202312B75
:102E00004350C2E9006744F32C84323B312BFCDC95
:102E1000344941F68C52CD8831498B5041F6AC5241
:102E20002F48DDF84845815C2F4B64F3C301815482
:102E300003F1C4011A6843F8012C04338B42F9D121
:102E4000274893F800C041F6796141F67A6204465A
:102E5000475C805C6054204641F677661F7041F6FF
:102E600094511F4B9DF84C458454C72003F806C06D
:102E700058502C9B6A1C92B2D3E90067002D40F099
:102E8000F8811A4B03F5206203F5C875D2E9640195
:102E9000E3E80201F2E80201AB42C3E96201F5D1C5
:102EA000134BD3E90A01D3E90845C3E9020141F60E
:102EB00094520B48322181500A4A43E90467C3E91E
:102EC00000450123D3800DF2DC5DBDEC028BBDE833
:102ED000F08F00BFAFF300800000E03F0000F03F44
:102EE0003809002030090020EC2600205010002076
:102EF000702000206666666666664A3FB048B14943
:102F000043F00303002483540025AF4B0022C1E9A2
:102F1000004501F11004C1E90223C4E900230022A5
:102F20000023D6E900010CF0E9FB41F6B052A44BB6
:102F30009B5A002800F08C8142F210755B1BB3FA9B
:102F400083F35B09CDF84835CDF84C359F4BDA88D3
:102F5000002A7FF4ECAD9A4D41F6885341F6945126
:102F6000EB586A50C3F1320000280CDD984A03F197
:102F70007F0102EBC00005EBC101F1E80267E2E866
:102F800002678242F9D141F690518D4D584241F687
:102F90009452685000218B42A95010DDC3EB43735B
:102FA00005EBC30305F57E7203F5A153183302F553
:102FB0008255F2E80201E3E80201AB42F9D141F6A1
:102FC0008C527F4DA95841F694530022C1F1320032
:102FD0009042EA500CDD7F4B01F1B10203EBC000DF
:102FE00005EBC202F2E80267E3E802678342F9D127
:102FF00041F69052724D484241F69453A850002237
:103000009142EA5014DDC1EB417305EBC30305F5B2
:10301000B16203F59553083302F55260F2E8026796
:10302000E3E802678342F9D141F69453644AD150F0
:1030300061A7D7E90067624B32461D46D3E9160106
:103040003B460CF05BFB08B9C5E916675C4B586D55
:10305000FFF7A2FB0026002804F019805A4F5848B9
:1030600041F6785241F6A4538158C0585A4ACB00D1
:10307000C5180029C2E90067C5E90067C4F2ED82FE
:1030800008330344A2F5B25273E902678342E2E8CF
:103090000267F9D14D1C2B4661B9494A133302EB43
:1030A000C3021030012370E90267013B9942E2E854
:1030B0000267F8DB022D41F6785304F0B380404AF2
:1030C000D5503DA7D7E900673D4B32461D46D3E9B1
:1030D0001C013B460CF012FB08B9C5E91C67384BD4
:1030E000D86EFFF759FB4FF00008002803F0CB879C
:1030F000DFF8D490394901F5D46541F6A853A1F51C
:10310000B7522868D258C300D6180028C1E90089F0
:10311000C6E90089C4F2A98208333149134473E92E
:1031200002679342E1E80267F9D1461C334660B971
:103130002349153301EBC3011032012372E90289DF
:10314000013B9842E1E80289F8DB022E1C4912BFDC
:103150002E6000232B6000220023D1E928014FF0CC
:1031600001060CF0CBFA08B14FF00006144900221A
:103170000023D1E926014FF001050CF0BFFA08B198
:103180004FF000050E4900220023D1E92A016E40CC
:103190004FF001050CF0B2FA08B14FF000050849F4
:1031A00000220023D1E92C0175404FF001060CF0FC
:1031B000A5FA17E0AFF30080FCA9F1D24D62603FA1
:1031C00038090020402000200000F03F3009002096
:1031D000E01B0020501A00201020002018200020A2
:1031E000E009002008B14FF00006754005F001002D
:1031F000374909F009FC002843F04C8741F6B253E7
:10320000344AD05C0BF098FF2DA3D3E900230CF0D7
:103210000DF8314BC3E9000189E403F003010129F2
:1032200003F07587022943F05A872C4C4FF00008B1
:103230004FF00009C4E90089002803F0F887012154
:1032400061F3010323490834C4E900898B5448E43D
:1032500042F20F718B4249F2D5811E4BCDF84805E1
:103260009852CDF84C0571E6CDF84855CDF84C553F
:103270006CE61B4BC72AC3E9006749F29681194ADD
:103280000023D3800DF2DC5DBDEC028BBDE8F08F36
:10329000134D32463B4655E90C010BF00FFE2C9CBA
:1032A00009A3D3E90023C4E900010BF0BFFF4B469B
:1032B00042460BF005FE2B9B403DC3E90001CFE4E5
:1032C000C3718BB665BC793FFFFFFFFFFF69084103
:1032D000D82600203809002098200020482000200F
:1032E0006020002030090020844ACDF85025127853
:1032F000012A03F0938782492C9100230022C1E91F
:10330000002301F5A46401F5A56501F1200B01F589
:10331000A661C1E90023C1E9022341E90623A1F521
:10332000A561C1E9002301F5A761C1E90023A1F569
:10333000A361C1E90023C1E90223C1E90423C1E972
:103340000623C1E90823C1E90A23C1E90C23C1E925
:103350000E23C1E91023C1E91223C1E91423C1E9F5
:103360001623C1E91823C1E91A237031C1E90023EA
:10337000C1E90223C1E90423C1E90623C1E9082305
:10338000C1E90A23C4E90023C5E90023CBE90023EE
:103390002B942D95C1E90C23C1E90E23C1E910231B
:1033A000C1E91223C1E91423C1E91623C1E9182395
:1033B000C1E91A23C1E91C23C1E91E238031C1E9F7
:1033C000FE23C1E90023C1E90223C1E90423C1E9C5
:1033D0000623C1E90823C1E90A23C1E90C23C1E995
:1033E0000E23C1E91023C1E91223C1E91423C1E965
:1033F0001623C1E91823C1E91A23C1E91C23783136
:10340000C1E90023C1E90223C1E90423C1E906237C
:10341000C1E90823C1E90A23C1E90C23C1E90E234C
:10342000C1E91023C1E91223C1E91423C1E916231C
:10343000C1E91823C1E91A23C1E91C237831C1E984
:103440000023C1E90223C1E90423C1E90623C1E93C
:103450000823C1E90A23C1E90C23C1E90E23C1E90C
:103460001023C1E91223C1E91423C1E91623C1E9DC
:103470001823C1E91A23C1E91C23C1E91E238031A5
:10348000C1E90023C1E90223C1E90423C1E90623FC
:10349000C1E90823C1E90A23C1E90C23C1E90E23CC
:1034A000C1E91023C1E91223C1E91423C1E916239C
:1034B000C1E91823C1E91A23C1E91C23C1E91E236C
:1034C0008031C1E90023C1E90223C1E90423C1E934
:1034D0000623C1E90823C1E90A23C1E90C23C1E994
:1034E0000E23C1E91023C1E91223C1E91423C1E964
:1034F0001623C1E91823C1E91A2303E0B8270020E5
:1035000080200020C1E91C23C1E91E238031C1E9CC
:103510000023C1E90223C1E90423C1E90623C1E96B
:103520000823C1E90A23C1E90C23C1E90E23C1E93B
:103530001023C1E91223C1E91423C1E91623C1E90B
:103540001823C1E91A23C1E91C23C1E91E238031D4
:10355000C1E90023C1E90223C1E90423C1E906232B
:10356000C1E90823C1E90A23C1E90C23C1E90E23FB
:10357000C1E91023C1E91223C1E91423C1E91623CB
:10358000C1E91823C1E91A23C1E91C23C1E91E239B
:1035900080311F461646C1E90023C1E90223C1E973
:1035A0000423C1E90623C1E90823C1E90A23C1E9CB
:1035B0000C23C1E90E23C1E91023C1E91223C1E99B
:1035C0001423C1E91623C1E91823C1E91A23C1E96B
:1035D0001C23C1E91E230DF58B63CDE94E67CDE9B0
:1035E000A467CDE94C67CDE96667CDE92467CDE9ED
:1035F0008A67CDE98467CDE94A67CDE97067CDE98F
:103600006067CDE93867CDE97467CDE96267CDE9D8
:103610006467CDE97867CDE9CE67CDE93E67CDE94E
:10362000AA67CDE93A67CDE97667CDE93267CDE99A
:10363000C267CDE9C067CDE9A867CDE97267CDE97A
:103640002E67CDE9AC67CDE93467CDE98C67CDE96C
:103650001667CDE97A67CDE97C67CDE98E67CDE95C
:103660008667CDE9C467CDE96C67CDE95467CDE9DC
:10367000CA67CDE91A67CDE92667CDE9A267CDE92A
:10368000DC67CDE9D267CDE9D467CDE92867CDE91C
:103690005067CDE9A067CDE9D667CDE95E67CDE992
:1036A000CC67CDE91467CDE91267CDE91067CDE9A4
:1036B0000E67CDE90C67CDE90A67CDE90867CDE96A
:1036C0009E67CDE99C67CDE99A67CDE99867CDE91A
:1036D000BA67CDE99667CDE99467CDE99267CDE900
:1036E0009067CDE9B667CDE9A667CDE95267CDE928
:1036F0006A67CDE95867CDE95667CDE9B267CDE98C
:10370000B067CDE9C867CDE96867CDE9E267CDE983
:103710008867CDE9B467CDE9E067CDE9B867CDE961
:103720006E67CDE9AE67CDE91C67CDE91E67CDE9CF
:103730002067CDE92267CDE9D867CDE9DA67CDE921
:103740000067CDE9DE67CDE95C67CDE93C67CDE98F
:10375000BE67CDE91867C3E900670DF58A63C3E961
:1037600000670DF5A663C3E900670DF59863C3E92B
:1037700000670DF58963C3E900670DF59B63C3E935
:1037800000670DF58C63C3E900670DF58663C3E937
:1037900000670DF58D63C3E900670DF5A363C3E909
:1037A00000670DF59963C3E900670DF5A163C3E9EF
:1037B00000670DF5A263C3E900670DF59763CDE9D6
:1037C0004067CDE94267CDE90667CDE93667CDE9C7
:1037D0007E67CDE94667CDE94467CDE90267CDE96B
:1037E0008067CDE90467CDE9BC67CDE98267CDE9A3
:1037F0004867CDE93067CDE9D067CDE9E667CDE927
:10380000F467CDE9FA67CDE9FC67C3E900670DF518
:103810008563C3E900670DF58E63C3E900670DF5A5
:103820008163C3E900670DF59C63C3E900670DF58B
:103830009463C3E900670DF59563C3E900670DF56F
:103840008863C3E900670DF5A563C3E900670DF55B
:103850008763C3E900670DF59D63C3E900670DF554
:103860009F63C3E900670DF59E63C3E900670DF52B
:103870009A63C3E900670DF59263C3E900670DF52C
:103880009663C3E900670DF58063C3E900670DF532
:103890008463C3E900670DF58363C3E900670DF531
:1038A0008F63C3E900670DF5A463C3E900670DF5F5
:1038B0009363C3E900670DF5A063C3E900670DF5E5
:1038C0008263DFF87083DFF870A3CDE9E867CDE9A4
:1038D000EA67CDE9F267CDE9F867CDE9EE67CDE9B2
:1038E000EC67CDE9F067CDE9FE67CDE9F667CDE994
:1038F000E467CDE9C667C3E900670DF59063C3E9E6
:103900000067CDE95A670DF59163C3E90067434647
:10391000D0469A46DAE9C823F8E802010BF0D0FA5B
:103920000AF5C863D3E900230BF080FC0022C04BEA
:103930000BF0C4FADAE9002304460D460BF076FCDE
:1039400002460B46DDE95A010AF1080A0BF0B8FA03
:103950000AF57943F833D3E90023CDE95A0120462B
:1039600029460BF063FC0B460DF582610246D1E956
:1039700000010BF0A5FA0DF58263C3E900010AF519
:103980008E33D3E91623204629460BF04FFC02461E
:103990000B46DDE9E4010BF093FA0AF59F33D3E916
:1039A0002E23CDE9E401204629460BF03FFC0B46CF
:1039B0000DF5A0610246D1E900010BF081FA0DF589
:1039C000A063C3E900010AF5B033D3E946232046DA
:1039D00029460BF02BFC0B460DF593610246D1E90D
:1039E00000010BF06DFA0DF59363C3E900010AF5D0
:1039F000C133D3E95E23204629460BF017FC0B4662
:103A00000DF5A4610246D1E900010BF059FA0DF55C
:103A1000A463C3E900010AF5D233D3E97623204633
:103A200029460BF003FC0B460DF591610246D1E9E6
:103A300000010BF045FA0DF59163C3E900010AF5A9
:103A4000E433D3E90E23204629460BF0EFFB0B4667
:103A50000DF590610246D1E900010BF031FA0DF548
:103A60009063C3E900010AF5F533D3E92623204624
:103A700029460BF0DBFB0B460DF58F610246D1E9C1
:103A800000010BF01DFA0DF58F63C3E900010AF682
:103A90005813D3E90023204629460BF0C7FB0B46F9
:103AA0000DF583610246D1E900010BF009FA0DF52D
:103AB0008363C3E900010AF52E533833D3E90023A9
:103AC000204629460BF0B2FB0B460DF584610246F9
:103AD000D1E900010BF0F4F90DF58463C3E90001AD
:103AE0000AF59C431833D3E90023204629460BF0FE
:103AF0009DFB02460B46DDE9F6010BF0E1F90AF504
:103B0000E0437833D3E90023CDE9F6012046294686
:103B10000BF08CFB02460B46DDE9FE010BF0D0F901
:103B20000AF51243D833D3E90023CDE9FE0120463C
:103B300029460BF07BFB02460B46DDE9F0010BF05A
:103B4000BFF90AF535433833CDE9F001D3E9002355
:103B5000204629460BF06AFB02460B46DDE9EC01E4
:103B60000BF0AEF90AF557439833D3E90023CDE9BA
:103B7000EC01204629460BF059FB02460B46DDE9D5
:103B8000EE010BF09DF90AF570439833D3E9002359
:103B9000CDE9EE01204629460BF048FB0B460DF51A
:103BA00080610246D1E900010BF08AF90DF58063CE
:103BB000C3E900010AF57343B833D3E90023204673
:103BC00029460BF033FB0B460DF596610246D1E911
:103BD00000010BF075F90DF59663C3E900010AF5D4
:103BE0007643D833D3E90023204629460BF01EFB49
:103BF0000B460DF592610246D1E900010BF060F928
:103C00000DF59263C3E900010AF57D431833D3E94A
:103C10000023204629460BF009FB0B460DF59A615F
:103C20000246D1E900010BF04BF90DF59A6305E06E
:103C30000000F03F78120108F0090020C3E90001FC
:103C40000AF58033D3E90E23204629460BF0EEFA1D
:103C50000B460DF59E610246D1E900010BF030F9EB
:103C60000DF59E63C3E900010AF58133D3E95623BC
:103C7000204629460BF0DAFA0B460DF59F61024605
:103C8000D1E900010BF01CF90DF59F63C3E90001B8
:103C90000AF58333D3E91E23204629460BF0C6FAE2
:103CA0000B460DF59D610246D1E900010BF008F9C4
:103CB0000DF59D63C3E900010AF58433D3E966235A
:103CC000204629460BF0B2FA0B460DF587610246F5
:103CD000D1E900010BF0F4F80DF58763C3E90001A9
:103CE0000AF58633D3E92E23204629460BF09EFAA7
:103CF0000B460DF5A5610246D1E900010BF0E0F895
:103D00000DF5A563C3E900010AF58733D3E97623EE
:103D1000204629460BF08AFA0B460DF588610246CB
:103D2000D1E900010BF0CCF80DF58863C3E900017F
:103D30000AF58933D3E93E23204629460BF076FA6B
:103D40000B460DF595610246D1E900010BF0B8F87C
:103D50000DF59563C3E900010AF58B33D3E906231A
:103D6000204629460BF062FA0B460DF59461024697
:103D7000D1E900010BF0A4F80DF59463C3E900014B
:103D80000AF58C33D3E94E23204629460BF04EFA30
:103D900002460B46DDE9F8010BF092F80AF58F3385
:103DA000D3E95E23CDE9F801204629460BF03EFA1F
:103DB0000B460DF59C610246D1E900010BF080F83D
:103DC0000DF59C63C3E900010AF59133D3E926237D
:103DD000204629460BF02AFA02460B46DDE9F2019D
:103DE0000BF06EF80AF59233D3E96E23CDE9F201B8
:103DF000204629460BF01AFA02460B46DDE9EA0195
:103E00000BF05EF80AF59433D3E93623CDE9EA01E5
:103E1000204629460BF00AFA02460B46DDE9E80186
:103E20000BF04EF80AF59533D3E97E23CDE9E8018E
:103E3000204629460BF0FAF90B460DF58161024642
:103E4000D1E900010BF03CF80DF58163C3E90001F5
:103E50000AF59733D3E94623204629460BF0E6F9C5
:103E60000B460DF58E610246D1E900010BF028F8F2
:103E70000DF58E63C3E900010AF59933D3E90E23EA
:103E8000204629460BF0D2F90B460DF58561024616
:103E9000D1E900010BF014F80DF58563C3E90001C9
:103EA0000AF59A33D3E95623204629460BF0BEF98A
:103EB0000B460DF597610246D1E900010BF000F8C1
:103EC0000DF59763C3E900010AF59C33D3E91E237E
:103ED000204629460BF0AAF90B460DF5A2610246D1
:103EE000D1E900010AF0ECFF0DF5A263C3E900017E
:103EF0000AF59D33D3E96623204629460BF096F94F
:103F00000B460DF5A1610246D1E900010AF0D8FF88
:103F10000DF5A163C3E900010AF5A033D3E97623C7
:103F2000204629460BF082F90B460DF599610246B1
:103F3000D1E900010AF0C4FF0DF59963C3E900015E
:103F40000AF5A233D3E93E23204629460BF06EF949
:103F50000B460DF5A3610246D1E900010AF0B0FF5E
:103F60000DF5A363C3E900010AF5A433D3E90623E1
:103F7000204629460BF05AF90B460DF58D61024695
:103F8000D1E900010AF09CFF0DF58D63C3E9000142
:103F90000AF5A533D3E94E23204629460BF046F90E
:103FA0000B460DF586610246D1E900010AF088FF53
:103FB0000DF58663C3E900010AF5A733D3E916239B
:103FC000204629460BF032F90B460DF58C6102466E
:103FD000D1E900010AF074FF0DF58C63C3E900011B
:103FE0000AF5A833D3E95E23204629460BF01EF9D3
:103FF00002460B46DDE9FC010AF062FF0AF5AA332E
:10400000D3E92623CDE9FC01204629460BF00EF921
:1040100002460B46DDE9FA010AF052FF0AF5AB331E
:10402000CDE9FA01D3E96E23204629460BF0FEF8CC
:1040300002460B46DDE9F4010AF042FF0AF5AD3312
:10404000D3E93623CDE9F401204629460BF0EEF8FA
:1040500002460B46DDE9E6010AF032FF0AF5AE330F
:10406000D3E97E23CDE9E601204629460BF0DEF8B0
:104070000B460DF59B610246D1E900010AF020FFD5
:104080000DF59B63C3E900010AF5B233D3E90E23B2
:10409000204629460BF0CAF80B460DF58961024609
:1040A000D1E900010AF00CFF0DF58963C3E90001B5
:1040B0000AF5B333D3E95623204629460BF0B6F868
:1040C0000B460DF598610246D1E900010AF0F8FEB1
:1040D0000DF59863C3E900010AF5B533D3E91E2352
:1040E000204629460BF0A2F80B460DF5A6610246C4
:1040F000D1E900010AF0E4FE0DF5A663C3E9000171
:104100000AF5B633D3E96623204629460BF08EF82C
:104110000B460DF58A610246D1E900010AF0D0FE96
:104120000DF58A63C3E900010AF5B833D3E92E23FC
:10413000204629460BF07AF80B460DF58B610246B6
:10414000D1E900010AF0BCFE0DF58B63C3E9000163
:104150000AF5B933D3E97623204629460BF066F8F1
:1041600002460B46DDE9C6010AF0AAFE0AF5BB339A
:10417000D3E93E23CDE9C601204629460BF056F887
:1041800002460B46DDE9D0010AF09AFE0AF5BD337E
:10419000D3E90623CDE9D001204629460BF046F8A5
:1041A00002460B46DDE930010AF08AFE0AF5BE330D
:1041B000D3E94E23CDE93001204629460BF036F8ED
:1041C00002460B46DDE948010AF07AFE0AF5C033E3
:1041D000D3E91623CDE94801204629460BF026F8FD
:1041E00002460B46DDE982010AF06AFE0AF5C33396
:1041F000D3E92623CDE98201204629460BF016F8A3
:1042000002460B46DDE9BC010AF05AFE0AF5C4334A
:10421000D3E96E23CDE9BC01204629460BF006F810
:1042200002460B46DDE904010AF04AFE0AF5C633F0
:10423000D3E93623CDE90401204629460AF0F6FFEA
:1042400002460B46DDE980010AF03AFE0AF5C73363
:10425000CDE98001D3E97E23204629460AF0E6FF16
:1042600002460B46DDE902010AF02AFE0AF5C933CF
:10427000D3E94623CDE90201204629460AF0D6FFBC
:1042800002460B46DDE944010AF01AFE0AF5CB337B
:10429000D3E90E23CDE94401204629460AF0C6FFA2
:1042A00002460B46DDE946010AF00AFE0AF5CC3368
:1042B000D3E95623CDE94601204629460AF0B6FF48
:1042C00002460B46DDE97E010AF0FAFD0AF5CE331F
:1042D000D3E91E23CDE97E01204629460AF0A6FF38
:1042E00002460B46DDE936010AF0EAFD0AF5CF3356
:1042F000D3E96623CDE93601204629460AF096FF28
:1043000002460B46DDE906010AF0DAFD0AF5D13373
:10431000D3E92E23CDE90601204629460AF086FF7F
:1043200002460B46DDE942010AF0CAFD0AF5D43324
:10433000D3E93E23CDE94201204629460AF076FF23
:1043400002460B46DDE940010AF0BAFD0AF5D63314
:10435000CDE94001D3E90623204629460AF066FF4D
:1043600002460B46DDE918010AF0AAFD0AF5D7332B
:10437000D3E94E23CDE91801204629460AF056FF1D
:1043800002460B46DDE9BE010AF09AFD0AF5D93373
:10439000D3E91623CDE9BE01204629460AF046FF9F
:1043A00002460B46DDE93C010AF08AFD0AF5DA33E4
:1043B000D3E95E23CDE93C01204629460AF036FFC9
:1043C00002460B46DDE95C010AF07AFD0AF5DC33B2
:1043D000D3E92623CDE95C01204629460AF026FFD1
:1043E00002460B46DDE9DE010AF06AFD0AF5DD331F
:1043F000D3E96E23CDE9DE01204629460AF016FFF7
:1044000002460B46DDE900010AF05AFD0AF5DF33EA
:10441000D3E93623CDE90001204629460AF006FFFC
:1044200002460B46DDE9DA010AF04AFD0AF5E033FF
:10443000D3E97E23CDE9DA01204629460AF0F6FECB
:1044400002460B46DDE9D8010AF03AFD0AF5E233EF
:10445000CDE9D801D3E94623204629460AF0E6FEF5
:1044600002460B46DDE922010AF02AFD0AF5E53392
:10447000D3E95623CDE92201204629460AF0D6FE8B
:1044800002460B46DDE920010AF01AFD0AF5E73382
:10449000D3E91E23CDE92001204629460AF0C6FEB5
:1044A00002460B46DDE91E010AF00AFD0AF5E83373
:1044B000D3E96623CDE91E01204629460AF0B6FE5F
:1044C00002460B46DDE91C010AF0FAFC0AF5EA3364
:1044D000D3E92E23CDE91C01204629460AF0A6FE89
:1044E00002460B46DDE9AE010AF0EAFC0AF5EB33C1
:1044F000D3E97623CDE9AE01204629460AF096FE9F
:1045000002460B46DDE96E010AF0DAFC0AF5ED33EE
:10451000D3E93E23CDE96E01204629460AF086FE06
:1045200002460B46DDE9B8010AF0CAFC0AF5EF3392
:10453000D3E90623CDE9B801204629460AF076FEE4
:1045400002460B46DDE9E0010AF0BAFC0AF5F03359
:10455000CDE9E001D3E94E23204629460AF066FE64
:1045600002460B46DDE9B4010AF0AAFC0AF5F23373
:10457000D3E91623CDE9B401204629460AF056FEB8
:1045800002460B46DDE988010AF09AFC0AF5F3338E
:10459000D3E95E23CDE98801204629460AF046FE8C
:1045A00002460B46DDE9E2010AF08AFC0AF5F63321
:1045B000D3E96E23CDE9E201204629460AF036FE12
:1045C00002460B46DDE968010AF07AFC0AF5F83389
:1045D000D3E93623CDE96801204629460AF026FEB4
:1045E00002460B46DDE9C8010AF06AFC0AF5F93318
:1045F000D3E97E23CDE9C801204629460AF016FEFC
:1046000002460B46DDE9B0010AF05AFC0AF5FB331D
:10461000D3E94623CDE9B001204629460AF006FE3B
:1046200002460B46DDE9B2010AF04AFC0AF5FD3309
:10463000D3E90E23CDE9B201204629460AF0F6FD62
:1046400002460B46DDE956010AF03AFC0AF5FE3354
:10465000CDE95601D3E95623204629460AF0E6FD66
:1046600002460B46DDE958010AF02AFC0AF500393A
:10467000D9E91E23CDE95801204629460AF0D6FD86
:1046800002460B46DDE96A010AF01AFCD9E9E62385
:10469000CDE96A01204629460AF0C8FD02460B46CC
:1046A000DDE952010AF00CFC0AF50133D3E9AE232F
:1046B000CDE95201204629460AF0B8FD02460B46D4
:1046C000DDE9A6010AF0FCFB0AF50233D3E9762303
:1046D000CDE9A601204629460AF0A8FD02460B4670
:1046E000DDE9B6010AF0ECFB0AF67843D3E90023D2
:1046F000CDE9B601204629460AF098FD02460B4650
:10470000DDE94E010AF0DCFB0AF69873D3E90023D9
:10471000CDE94E01204629460AF088FD02460B46A7
:10472000DDE9A4010AF0CCFB0AF595531833D3E96F
:104730000023CDE9A401204629460AF077FD024670
:104740000B46DDE94C010AF0BBFB0AF5AE5318330A
:10475000CDE94C01D3E90023204629460AF066FD45
:1047600002460B46DDE966010AF0AAFB0AF5C753CB
:104770001833D3E90023CDE96601204629460AF023
:1047800055FD02460B46DDE924010AF099FB0AF5C6
:10479000E0531833D3E90023CDE92401204629460C
:1047A0000AF044FD02460B46DDE98A010AF088FB67
:1047B0000AF5F9531833D3E90023CDE98A012046DD
:1047C00029460AF033FD02460B46DDE984010AF072
:1047D00077FB0AF509531833D3E90023CDE98401A7
:1047E000204629460AF022FD02460B46DDE94A0131
:1047F0000AF066FB0AF515533833D3E90023CDE9F7
:104800004A01204629460AF011FD02460B46DDE921
:1048100070010AF055FB0AF522531833D3E900233F
:10482000CDE97001204629460AF000FD02460B46FC
:10483000DDE960010AF044FB0AF53B531833D3E984
:104840000023CDE96001204629460AF0EFFC02462C
:104850000B46DDE938010AF033FB0AF547533833DC
:10486000CDE93801D3E90023204629460AF0DEFCD1
:1048700002460B46DDE974010AF022FB0AF55453A7
:104880001833D3E90023CDE97401204629460AF004
:10489000CDFC02460B46DDE962010AF011FB0AF588
:1048A00060533833D3E90023CDE96201204629461D
:1048B0000AF0BCFC02460B46DDE964010AF000FB8D
:1048C0000AF56D531833D3E90023CDE9640120467E
:1048D00029460AF0ABFC02460B46DDE978010AF0F6
:1048E000EFFA0AF579533833D3E90023CDE978019B
:1048F000204629460AF09AFC02460B46DDE9CE0125
:104900000AF0DEFA0AF583431833D3E90023CDE930
:10491000CE01204629460AF089FC02460B46DDE915
:104920003E010AF0CDFA0AF589433833D3E9002372
:10493000CDE93E01204629460AF078FC02460B46A6
:10494000DDE9AA010AF0BCFA0AF58F435833D3E92E
:104950000023CDE9AA01204629460AF067FC024659
:104960000B46DDE93A010AF0ABFA0AF595437833D4
:10497000CDE93A01D3E90023204629460AF056FC46
:1049800002460B46DDE976010AF09AFA0AF5A243DF
:104990003833D3E90023CDE97601204629460AF0D1
:1049A00045FC02460B46DDE932010AF089FA0AF5B8
:1049B000A8435833D3E90023CDE9320120462946E4
:1049C0000AF034FC02460B46DDE9C2010AF078FA2F
:1049D0000AF5AE437833D3E90023CDE9C20120467E
:1049E00029460AF023FC02460B46DDE9C0010AF025
:1049F00067FA0AF5B5431833D3E90023CDE9C001BE
:104A0000204629460AF012FC02460B46DDE9A801C1
:104A10000AF056FA0AF5BB433833D3E90023CDE94F
:104A2000A801204629460AF001FC02460B46DDE9B2
:104A300072010AF045FA0AF5C1435833D3E900235D
:104A4000CDE97201204629460AF0F0FB02460B46EA
:104A5000DDE92E010AF034FA0AF5C7437833D3E9C9
:104A60000023CDE92E01204629460AF0DFFB02464D
:104A70000B46DDE9AC010AF023FA0AF5CE43183300
:104A8000CDE9AC01D3E90023204629460AF0CEFB4C
:104A900002460B46DDE934010AF012FA0AF5D44366
:104AA0003833D3E90023CDE93401204629460AF002
:104AB000BDFB02460B46DDE98C010AF001FA0AF55E
:104AC000DA435833D3E90023CDE98C012046294647
:104AD0000AF0ACFB02460B46DDE916010AF0F0F9DC
:104AE0000AF5E7431833D3E90023CDE91601204640
:104AF00029460AF09BFB02460B46DDE97A010AF0E3
:104B0000DFF90AF5ED433833D3E90023CDE97A0123
:104B1000204629460AF08AFB02460B46DDE97C0165
:104B20000AF0CEF90AF5F3435833D3E90023CDE96F
:104B30007C01204629460AF079FB02460B46DDE956
:104B40008E010AF0BDF90AF5F9437833D3E9002361
:104B5000CDE98E01204629460AF068FB02460B4645
:104B6000DDE986010AF0ACF90AF500431833D3E910
:104B70000023CDE98601204629460AF057FB02466C
:104B80000B46DDE9C4010AF09BF90AF5034338330B
:104B9000CDE9C401D3E90023204629460AF046FBAB
:104BA00002460B46DDE96C010AF08AF90AF5064374
:104BB0005833D3E90023CDE96C01204629460AF099
:104BC00035FB02460B46DDE954010AF079F90AF596
:104BD00009437833D3E90023CDE95401204629461F
:104BE0000AF024FB02460B46DDE9CA010AF068F927
:104BF0000AF50C439833D3E90023CDE9CA012046D6
:104C000029460AF013FB02460B46DDE91A010AF0B9
:104C100057F90AF50F43B833D3E90023CDE91A0158
:104C2000204629460AF002FB02460B46DDE9260132
:104C30000AF046F90AF51543F833D3E90023CDE924
:104C40002601204629460AF0F1FA02460B46DDE924
:104C5000A2010AF035F90AF519431833D3E9002304
:104C6000CDE9A201204629460AF0E0FA02460B46A9
:104C7000DDE9DC010AF024F90AF51C433833D3E9F5
:104C80000023CDE9DC01204629460AF0CFFA02468E
:104C90000B46DDE9D2010AF013F90AF51F43583338
:104CA000CDE9D201D3E90023204629460AF0BEFA15
:104CB00002460B46DDE9D4010AF002F90AF5224367
:104CC0007833D3E90023CDE9D401204629460AF000
:104CD000ADFA02460B46DDE928010AF0F1F80AF5C3
:104CE00025439833D3E90023CDE9280120462946FE
:104CF0000AF09CFA02460B46DDE950010AF0E0F8A2
:104D00000AF52843B833D3E90023CDE95001204602
:104D100029460AF08BFA02460B46DDE9A0010AF0AB
:104D2000CFF80AF52B43D833D3E90023CDE9A0010E
:104D3000204629460AF07AFA02460B46DDE9D601FA
:104D40000AF0BEF80AF52E43F833D3E90023CDE983
:104D5000D601204629460AF069FA02460B46DDE9EB
:104D60005E010AF0ADF80AF532431833D3E90023A7
:104D7000CDE95E01204629460AF058FA02460B4664
:104D8000DDE9CC010AF09CF80AF538435833D3E941
:104D90000023CDE9CC01204629460AF047FA024615
:104DA0000B46DDE914010AF08BF80AF53B43783332
:104DB000CDE91401D3E90023204629460AF036FA4A
:104DC00002460B46DDE912010AF07AF80AF53E4385
:104DD0009833D3E90023CDE91201204629460AF091
:104DE00025FA02460B46DDE910010AF069F80AF5DA
:104DF0004143B833D3E90023CDE9100120462946C9
:104E00000AF014FA02460B46DDE90E010AF058F8E2
:104E10000AF54443D833D3E90023CDE90E012046F7
:104E200029460AF003FA02460B46DDE90C010AF0B6
:104E300047F80AF54743F833D3E90023CDE90C01DD
:104E4000204629460AF0F2F902460B46DDE90A013E
:104E50000AF036F80AF54B431833D3E90023CDE9BD
:104E60000A01204629460AF0E1F902460B46DDE92F
:104E700008010AF025F80AF54E433833D3E9002338
:104E8000CDE90801204629460AF0D0F902460B4632
:104E9000DDE99E010AF014F80AF551435833D3E9CD
:104EA0000023CDE99E01204629460AF0BFF90246BB
:104EB0000B46DDE99C010AF003F80AF55443783308
:104EC000CDE99C01D3E90023204629460AF0AEF93A
:104ED00002460B46DDE99A0109F0F2FF0AF55A4352
:104EE000B833CDE99A01D3E90023204629460AF0D8
:104EF0009DF902460B46DDE9980109F0E1FF0AF54C
:104F00005D43D833CDE99801D3E9002320462946F3
:104F10000AF08CF902460B46DDE9BA0109F0D0FF30
:104F20000AF56043F833CDE9BA01D3E900232046FE
:104F300029460AF07BF902460B46DDE9960109F0A5
:104F4000BFFF0AF564431833CDE99601D3E9002386
:104F5000204629460AF06AF902460B46DDE994012B
:104F600009F0AEFF0AF567433833CDE99401D3E980
:104F70000023204629460AF059F902460B46DDE98E
:104F8000920109F09DFF0AF56A435833CDE9920179
:104F9000D3E90023204629460AF048F902460B4689
:104FA000DDE9900109F08CFF0AF56D437833CDE916
:104FB0009001D3E90023204629460AF037F90B4631
:104FC00002463946304609F07BFFFA4B98450646C3
:104FD0000F467EF49FAC9DEDC67B03F5C45383ED75
:104FE000007B9DEDD07B9DED486BA3F5607383ED59
:104FF000007B9DED307B83ED046B9DED826B83ED3B
:10500000027B183383ED006B9DEDBC6B83ED026B6F
:105010009DED046B83ED046B9DED806B83ED066B62
:105020009DED026B83ED086B9DED446B83ED0A6B88
:105030009DED466B83ED0C6B9DED7E6B83ED0E6BF2
:105040009DED366B83ED106B9DED066B83ED126B62
:105050009DED426B83ED146B9DED406B83ED166B04
:105060009DED186B83ED186B9DEDBE6B83ED1A6B98
:105070009DED3C6B83ED1C6B9DED5C6B83ED1E6BBE
:105080009DEDDE6B803383ED006B9DED006B83ED5A
:10509000026B9DEDDA6B83ED046B9DEDD86B83EDB8
:1050A000066B9DED226B83ED086B9DED206B83ED10
:1050B0000A6B9DED1E6B83ED0C6B9DED1C6B83ED00
:1050C0000E6B9DEDAE6B83ED106B9DED6E6B83ED06
:1050D000126B9DEDB86B83ED146B9DEDE06BB64AE2
:1050E000C2E9004583ED166B9DEDB46B83ED186B43
:1050F0009DED886B83ED1A6B9DEDE26B83ED1C6B70
:105100009DED686B83ED1E6B9DEDC86B803383ED69
:10511000006B9DEDB06B83ED026B9DEDB26B83ED8B
:10512000046B9DED566B83ED066B9DED586B83ED27
:10513000086B9DED6A6B83ED0A6B9DED526B83ED01
:105140000C6B9DEDA66B83ED0E6B9DEDB66B83ED49
:10515000106B9DED4E6B83ED126B9DEDA46B83ED9B
:10516000146B9DED4C6B83ED166B9DED666B83EDC3
:10517000186B9DED246B83ED1A6B9DED8A6B83EDAF
:105180001C6B9DED846B83ED1E6B9DED4A6BA2F550
:10519000F07181ED006B9DED706B81ED026B9DED0B
:1051A000606B81ED046B9DED386B81ED066B9DEDC1
:1051B000746BA2F5E07181ED006B9DED626B81ED8A
:1051C000026B9DED646B81ED046B9DED786B81ED61
:1051D000066B9DEDCE6B81ED086B9DED3E6B81ED19
:1051E0000A6B9DEDAA6B81ED0C6B9DED3A6B81ED29
:1051F0000E6B9DED766B81ED106B9DED326B81ED4D
:10520000126B9DEDC26B81ED146B9DEDC06B81ED5A
:10521000166B9DEDA86B81ED186B9DED726B81EDAA
:105220001A6B9DED2E6B81ED1C6B9DEDAC6B81EDD2
:105230001E6B9DED346B803181ED006B9DED8C6BB1
:1052400081ED026B9DED166B81ED046B9DED7A6B2C
:1052500081ED066B9DED7C6B81ED086B9DED8E6B9A
:1052600081ED0A6B9DED866B81ED0C6B9DEDC46B42
:1052700081ED0E6B9DED6C6B81ED106B9DED546BB4
:1052800081ED126B9DEDCA6B81ED146B9DED1A6B78
:1052900081ED166B9DED266B81ED186B9DEDA26B7C
:1052A00081ED1A6B9DEDDC6B81ED1C6B9DEDD26B7E
:1052B00081ED1E6B9DEDD46B803181ED006B9DED1A
:1052C000286B02ED2E6B9DED506B02ED2C6B9DED6E
:1052D000A06B02ED2A6B9DEDD66B02ED286B9DED68
:1052E0005E6B02ED266B9DEDCC6B02ED246B9DEDAC
:1052F000146B02ED226B9DED126B02ED206B9DEDA8
:10530000106B81ED126B9DED0E6B81ED146B9DEDBD
:105310000C6B81ED166B9DED0A6B81ED186B9DEDAD
:10532000086B81ED1A6B9DED9E6B81ED1C6B9DED05
:105330009C6B81ED1E6B9DED9A6B81ED206B9DED5D
:10534000986B81ED226B9DEDBA6B81ED246B9DED29
:10535000966B81ED266B9DED946B81ED286B9DED39
:10536000926B81ED2A6B9DED906BC1E92E6781ED0B
:105370002C6B0DF5A06191ED006BA2F590550DF52C
:10538000906185ED006B91ED006BA2F58F5484ED7B
:10539000006B9DEDF66BA2F58E5080ED006B9DEDE0
:1053A000EE6B80ED086B9DED5A6BA0F158010DF589
:1053B000826003E0100D00208825002081ED006B45
:1053C00090ED006B81ED026B9DEDE46B0DF593604C
:1053D00081ED046B90ED006B0DF5A46081ED086B21
:1053E00090ED006B0DF5916081ED0A6B90ED006B17
:1053F0000DF58F6081ED0C6B90ED006B0DF583600A
:1054000081ED106B90ED006B0DF5846081ED126BFA
:1054100090ED006B81ED146B9DEDFE6B81ED186BD3
:105420009DEDF06B81ED1A6B9DEDEC6B0DF58060E1
:1054300081ED1C6B90ED006B0DF5966081ED206B9E
:1054400090ED006B0DF5926081ED226B90ED006B9D
:105450000DF59A6081ED246B90ED006B0DF5876082
:1054600081ED266B90ED006BB8310DF5946081ED08
:10547000006B90ED006B81ED086B9DEDEA6B0DF517
:10548000856081ED106B90ED006B0DF5996081EDFD
:10549000186B90ED006B0DF58C6081ED206B90ED3D
:1054A000006B81ED286B9DEDE66B0DF59E6081ED47
:1054B000306B90ED006B0DF59F6001ED066B90ED8C
:1054C000006B0DF59D6001ED046B90ED006B0DF52B
:1054D000A56001ED026B90ED006B0DF5886081ED2C
:1054E000026B90ED006B0DF5956081ED046B90ED16
:1054F000006B81ED066B9DEDF86B0DF59C6081ED09
:105500000A6B90ED006B81ED0C6B9DEDF26B81ED04
:105510000E6B9DEDE86B48310DF5816081ED006B00
:1055200090ED006B0DF58E6081ED026B90ED006BE0
:105530000DF5976081ED046B90ED006B0DF5A260A9
:1055400081ED086B90ED006B0DF5A16081ED0A6BAC
:1055500090ED006B0DF5A36081ED0C6B90ED006B91
:105560000DF58D6081ED106B90ED006B0DF5866093
:1055700081ED126B90ED006B81ED146B9DEDFC6B7A
:1055800081ED186B9DEDFA6B81ED1A6B9DEDF46B5F
:105590000DF59B6081ED1C6B90ED006B0DF5896046
:1055A00081ED206B90ED006B0DF5986081ED226B25
:1055B00090ED006B0DF5A66081ED246B90ED006B16
:1055C00081ED266B9DEDD06BB83181ED006B9DEDCB
:1055D000BC6B81ED086B9DED446B81ED106B9DED17
:1055E000066B81ED186B9DED426B81ED1A6B9DEDA5
:1055F000406B81ED1C6B9DED186B81ED1E6B9DED7D
:10560000BE6B81ED206B9DED3C6B81ED226B9DEDC2
:105610005C6B81ED246B9DEDDE6B81ED266B9DED6A
:10562000006B81ED286B9DEDDA6B81ED2A6B9DEDB2
:10563000D86B81ED2C6B9DED226B81ED2E6B9DED7A
:10564000206B81ED306B9DED1E6BC83181ED006BE1
:105650009DED1C6B81ED026B9DEDAE6B81ED046BDE
:105660009DED6E6B0DF58A6081ED066B90ED006B24
:105670000DF58B6001ED386B90ED006B01ED366B35
:105680009DEDC66B01ED346B9DED306B01ED306B24
:105690009DED486B01ED2E6B9DED826B01ED2C6B4A
:1056A0009DED046B01ED286B9DED806B01ED266B8C
:1056B0009DED026B01ED246B9DED466B01ED206BC2
:1056C0009DED7E6B01ED1E6B9DED366B01ED1C6B50
:1056D0009DEDB86BA2F6787A8AED006B9DEDE06BDC
:1056E000A2F5776989ED006B9DEDB46BA2F6687841
:1056F00088ED006B9DED886BA2F5766E8EED006BEC
:105700009DEDE26BA3F6F84383ED006B9DED686BB6
:1057100083ED026B9DEDC86B83ED046B9DEDB06B6B
:1057200083ED066B9DEDB26B83ED086B9DED566BC3
:1057300083ED0A6B9DED586B83ED0C6B9DED6A6BF1
:1057400083ED0E6B9DED526B83ED106B9DEDA66BA3
:1057500083ED126B9DEDB66B83ED146B9DED4E6B7F
:1057600083ED166B9DEDA46B83ED186B9DED4C6B7B
:1057700083ED1A6B9DED666B83ED1C6B9DED246BC9
:1057800083ED1E6B9DED8A6B83ED206B9DED846B2D
:1057900083ED226B9DED4A6B83ED246B9DED706B69
:1057A00083ED266B9DED606B83ED286B9DED386B73
:1057B00083ED2A6B9DED746B83ED2C6B9DED626B1D
:1057C00083ED2E6B9DED646B83ED306B9DED786BFF
:1057D00083ED326B9DEDCE6B83ED346B9DED3E6BB7
:1057E00083ED366B9DEDAA6B83ED386B9DED3A6BC7
:1057F00083ED3A6B9DED766B83ED3C6B9DED326BEB
:1058000083ED3E6B9DEDC26B83ED406B9DEDC06BF8
:1058100083ED426B9DEDA86B83ED446B9DED726B48
:1058200083ED466B9DED2E6B83ED486B9DEDAC6B70
:1058300083ED4A6B9DED346B83ED4C6B9DED8C6B72
:1058400083ED4E6B9DED166B83ED506B9DED7A6B8A
:1058500083ED526B9DED7C6B83ED546B9DED8E6BF8
:1058600083ED566B9DED866B83ED586B9DEDC46BA0
:1058700083ED5A6B9DED6C6B83ED5C6B9DED546B12
:1058800083ED5E6B9DEDCA6B83ED606B9DED1A6BD6
:1058900083ED626B9DED266B83ED646B9DEDA26BDA
:1058A00083ED666B9DEDDC6B83ED686B9DEDD26BDC
:1058B00083ED6A6B9DEDD46B83ED6C6B9DED286B76
:1058C00083ED6E6B9DED506B83ED706B9DEDA06B6A
:1058D00083ED726B9DEDD66B83ED746B9DED5E6B0E
:1058E00083ED766B9DEDCC6B83ED786B9DED146B4A
:1058F00083ED7A6B9DED126B83ED7C6B9DED106BF0
:1059000083ED7E6B9DED0E6B83ED806B9DED0C6BDF
:1059100083ED826B9DED0A6B83ED846B9DED086BCF
:1059200083ED866B9DED9E6B83ED886B9DED9C6B8F
:1059300083ED8A6B9DED9A6B83ED8C6B9DED986B7F
:1059400083ED8E6B9DEDBA6B83ED906B9DED966B49
:1059500083ED926B9DED946B83ED946B9DED926B5B
:1059600083ED966B9DED906B9FED457BC3E99A6748
:1059700083ED986B2C9B444E83ED007B2B9B83ED3A
:10598000007B2D9B83ED007B08F5796383ED007B25
:1059900083ED027B03ED067B08F6682383ED007B35
:1059A00003F5A76383ED007BA3F5A36383ED007B81
:1059B00083ED027B83ED047B83ED067B83ED087B27
:1059C00083ED0A7B83ED0C7B83ED0E7B83ED107BF7
:1059D00083ED127B83ED147B8BED007B683303ED4D
:1059E000047B03ED027B83ED007B83ED027B83ED83
:1059F000047B83ED067B83ED087B83ED0A7B83EDDF
:105A00000C7B83ED0E7B83ED107B83ED127B83EDAE
:105A1000147B83ED167B83ED187B83ED1A7B83ED7E
:105A20001C7B83ED1E7B803383ED007B83ED027B4B
:105A300083ED047B83ED067B83ED087B83ED0A7B9E
:105A400083ED0C7B83ED0E7B83ED107B83ED127B6E
:105A500083ED147B83ED167B83ED187B83ED1A7B3E
:105A600083ED1C7B41F6945C83ED1E7B074B00228B
:105A700043F80C20DDE95A0111E000BFAFF30080CC
:105A80000000000000000000480D01083809002057
:105A9000C34B08F5A47803EBC808D8E9000106EB6E
:105AA000C202D2E9002309F00BFA00224FF0404372
:105AB00009F0BCFB07F004FC0022BA4BBA4F09F016
:105AC000FFF902460B460020B64909F0D9FC024610
:105AD0000B4609F0F5F90022B24B09F0EFF9B34B90
